:100000000C94CD000C94EC000C94EC000C94A41215
:100010000C940F130C9439120C94EC000C94EC001B
:100020000C94EC000C94EC000C94EC000C94EC00A0
:100030000C94EC000C94EC000C94EC000C94EC0090
:100040000C94EC000C94EC000C94EC000C94EC0080
:100050000C94EC000C94EC000C94EC000C94EC0070
:100060000C94EC000C94EC000C94EC000C94EC0060
:100070000C94EC000C94EC000C94EC000C94EC0050
:100080000C94EC000C94E0100C94EC006E616E008B
:10009000696E660000407A10F35A00A0724E18098B
:1000A0000010A5D4E80000E87648170000E40B54DF
:1000B000020000CA9A3B000000E1F50500008096AE
:1000C0009800000040420F000000A08601000000E0
:1000D000102700000000E80300000000640000009A
:1000E00000000A00000000000100000000002C7663
:1000F000D888DC674F0823DFC1DFAE59E1B1B7967E
:10010000E5E3E453C63AE651997696E8E6C28426DA
:10011000EB898C9B62ED407C6FFCEFBC9C9F40F2B6
:10012000BAA56FA5F490055A2AF75C936B6CF96732
:100130006DC11BFCE0E40D47FEF520E6B500D0EDF7
:10014000902E0300943577050080841E080000205F
:100150004E0A000000C80C333333330F986E1283FD
:100160001141EF8D2114893BE65516CFFEE6DB18D1
:10017000D1844B381BF77C1D901DA4BBE424203296
:1001800084725E228100C9F124ECA1E53D276364FD
:10019000696E6F70737578585B0011241FBECFEFC6
:1001A000D0E1DEBFCDBF1DE0A0E0B1E0EAEAFFE4B0
:1001B00000E00BBF02C007900D92A035B107D9F740
:1001C0002DE0A0E5BDE001C01D92A136B207E1F728
:1001D0000E94551C0C948C270C9400005D9BFECF54
:1001E0008CB9082E000C990B08955F9BFECF8CB143
:1001F00090E008958CE080936400E5E6F0E0808173
:100200008B7F80838081877F80830895882319F086
:10021000813029F008955D9BFECF6CB908958091DF
:100220009B0085FFFCCF60939C000895CF935F9B5C
:10023000FECFCCB18C2F0C2E000C990B9F93CF933B
:1002400084E191E09F938F930E9419220F900F9069
:100250000F900F908C2FCF9108951092900084E60C
:1002600089B988E18AB940E050E065EF70E08EEE30
:1002700090E00C9488213E9A87B1807487B986B14A
:10028000876886B933980895CF93DF93FC01C9E15D
:10029000D1E0089720F4E257F84D0C945C20DF93EE
:1002A000CF930E9419220F900F90DF93CF930E945B
:1002B00019220F900F90F3CF87B1866087B987B16D
:1002C000867E87B9369A349BFECF349A84B195B135
:1002D000DF91CF91089587B1876087B987B1877E15
:1002E00087B9F0CF87B1807E87B9ECCF389A87B1D4
:1002F000817E87B9E7CF399A87B1827E87B9E2CF0D
:1003000087B1836087B987B1837E87B9DBCF3A9A9B
:1003100087B1847E87B9D6CF87B1856087B987B129
:10032000857E87B9CFCF8CE080936400E5E6F0E06E
:1003300080818B7F80838081877F80833E9A87B195
:10034000807487B986B1876886B933981092900017
:1003500084E689B988E18AB940E050E065EF70E051
:100360008EEE90E00E9488210C942F153E9A87B162
:10037000807487B986B1876886B9339810929000E7
:1003800084E689B988E18AB940E050E065EF70E021
:100390008EEE90E00E9488210C942F1587B3876021
:1003A00087BB84B3876084BB91E098BB85B38760CB
:1003B00085BB81E58DB99EB9089587E087BB81E053
:1003C00088BB91E59DB98EB984B38F6384BB85B337
:1003D000886385BB0895FB019FB928E833E105C018
:1003E000215031092115310511F0779BF9CF2FB13B
:1003F00030E0318320838FB988E893E103C001970F
:10040000009711F0779BFBCF80E090E09081918383
:1004100080832FB1822B9183808308958FB988E8E0
:1004200093E103C00197009711F0779BFBCF0895EC
:10043000A82FFB01CA01B901E330F10531F18CF4B9
:10044000309701F1319751F425B3217025BBA9985C
:10045000A23389F0A33329F1A133E1F080E090E0E9
:1004600008953497D9F725B3217025BB25B32270A1
:1004700025BBA23379F7AC980E94EB01AC9A81E0DE
:1004800090E00895A898A998E3CFA89825B3227082
:1004900025BBDECFAB980E94EB01AB9A81E090E0E8
:1004A0000895AD980E94EB01AD9AF8CF80E090E0FE
:1004B0000E94772790E00895682F80E090E00C94E8
:1004C0007F2781E090E00E94772790E00895682FD1
:1004D00081E090E00C947F27EF92FF920F931F939F
:1004E000CF93DF9300E010E0E12CF12CC2E0D0E0EC
:1004F000CE010E94772790E0002E02C0880F991F3E
:100500000A94E2F7E82AF92A2196085F1F4FC630BD
:10051000D10571F7C701DF91CF911F910F91FF9026
:10052000EF900895CF93682FC92F82E090E00E944A
:100530007F276C2F83E090E00E947F2760E084E0BB
:1005400090E00E947F2760E085E090E0CF910C94DE
:100550007F27CF92DF92EF92FF920F931F93CF935B
:10056000DF93CDB7DEB728970FB6F894DEBF0FBE86
:10057000CDBF01978C01000F111F000F111F080F35
:10058000191F060F171F000F111F000F111F0A5F01
:100590001F4FCE0101967C016E0195E0C90ED11C62
:1005A000C8010E947727D7018D937D010F5F1F4FF0
:1005B000AC15BD05A9F789819A81AB81BC81BC01CD
:1005C000CD0128960FB6F894DEBF0FBECDBFDF91E8
:1005D000CF911F910F91FF90EF90DF90CF900895F2
:1005E000CF92DF92EF92FF920F931F93CF93DF93FF
:1005F00000D000D0CDB7DEB729833A834B835C832C
:1006000001978C01000F111F000F111F080F191FF8
:10061000060F171F000F111F000F111F0A5F1F4F3A
:10062000CE0101967C016E0195E0C90ED11CF70147
:1006300061917F01C8010E947F270F5F1F4FEC145B
:10064000FD04A9F70F900F900F900F90DF91CF91BD
:100650001F910F91FF90EF90DF90CF9008956F92D0
:100660007F928F929F92AF92BF92CF92DF92EF9242
:10067000FF920F931F93CF93DF9300D000D0CDB79D
:10068000DEB76C01CC0CDD1CC80ED91ECC0CDD1CF9
:10069000CC0CDD1C82E4C80ED11C4B01FB013C9646
:1006A0003F01CE0105965C01CE0101967C018601D9
:1006B000C8010E947727F70181937F010F5F1F4FC9
:1006C000AE16BF06A9F7F4E0CF0ED11C89819A813E
:1006D000AB81BC81F40181939193A193B1934F01BC
:1006E000E615F70509F70F900F900F900F90DF9127
:1006F000CF911F910F91FF90EF90DF90CF90BF901F
:10070000AF909F908F907F906F9008956F927F929F
:100710008F929F92AF92BF92CF92DF92EF92FF9211
:100720000F931F93CF93DF9300D000D0CDB7DEB7E8
:100730006C01CC0CDD1CC80ED91ECC0CDD1CCC0C05
:10074000DD1C82E4C80ED11C4B01FB013C963F012D
:10075000CE0105965C01F40181919191A191B19135
:100760004F0189839A83AB83BC83CE0101967C01C0
:100770008601F70161917F01C8010E947F270F5F09
:100780001F4FEA14FB04A9F7F4E0CF0ED11C861426
:10079000970409F70F900F900F900F90DF91CF9172
:1007A0001F910F91FF90EF90DF90CF90BF90AF908F
:1007B0009F908F907F906F900895CF93DF93EC017F
:1007C00080E090E0C11522E0D207C4F4CE01D7FD4D
:1007D00018C09595879595958795959587959927AF
:1007E000865A9F4F0E94772790E0C770DD2702C08E
:1007F00095958795CA95E2F781709927DF91CF91FA
:1008000008950796E6CFEF92FF920F931F93CF9331
:10081000DF93EC017B01811522E0920754F58C01F6
:1008200097FD24C01595079515950795159507957E
:100830001127065A1F4FC8010E947727682FC770DB
:10084000DD2781E090E001C0880FCA95EAF7EF2824
:1008500051F0682BC801DF91CF911F910F91FF904C
:10086000EF900C947F2780956823F4CF095F1F4F8A
:10087000D9CFDF91CF911F910F91FF90EF90089505
:100880009C01211582E0380734F43327C9018656CC
:100890009F4F0C94772780E008959C01211582E0FA
:1008A00038070CF00895C901992786569F4F0C947C
:1008B0007F2780916400806180936400809165004F
:1008C00080618093650082E390E0EFE3FCE931977B
:1008D000F1F700C0000001970097B9F7809165001B
:1008E0008F7E8093650082E390E0EFE3FCE931972F
:1008F000F1F700C0000001970097B9F708950F9332
:100900001F93CF93DF938C011816190644F4C0E0AF
:10091000D0E00E94590421960C171D07D1F7DF91F2
:10092000CF911F910F9108951F93CF93DF9300D024
:10093000CDB7DEB70E94DD0183E491E09F938F93F2
:100940000E9419220E941601182F9E012F5F3F4F0F
:1009500041E054E060E070E00E9418029E012F5FC9
:100960003F4F45E55FE060E070E0812F0E94180294
:100970009E012F5F3F4F4FEF5CE560E070E0812FFD
:100980000E9418020F900F9022E330E08FE39CE961
:100990000197F1F700C00000215031092115310500
:1009A000A9F79E012F5F3F4F40E05CE560E070E0FB
:1009B000812F0E94180222E330E08FE39CE9019727
:1009C000F1F700C000002150310921153105A9F7C8
:1009D0009E012F5F3F4F4FEF5CE560E070E0812F9D
:1009E0000E94180222E330E08FE39CE90197F1F7BF
:1009F00000C000002150310921153105A9F79E01E1
:100A00002F5F3F4F40E05CE560E070E0812F0E9487
:100A100018020F900F90DF91CF911F910895892BAD
:100A200031F48AB38B608ABBBD9AD298089582B1A3
:100A30008C6082B987B3816487BBA7980895892B9E
:100A400029F4672B59F0D89AD9980895672B19F093
:100A50001A981B9A08951A9A1B980895D898D99AAB
:100A60000895892B19F4DB9AC59A0895C09AC69AFD
:100A70000895892B19F4DB98C5980895C098C698F5
:100A800008950F931F93CF93DF938C01EB01CB015C
:100A90000E940F05101611060CF06CC020E030E02B
:100AA000209709F06CC0D89AD998DB9AC59A8FE341
:100AB0009CE90197F1F700C00000EFE3FCE93197F2
:100AC000F1F700C000008FE39CE90197F1F700C047
:100AD0000000EFE3FCE93197F1F700C000008FE37D
:100AE0009CE90197F1F700C00000DB98C59882E30C
:100AF00090E0EFE3FCE93197F1F700C000000197C7
:100B00000097B9F7209709F05FC0D898D99ADB9A77
:100B1000C59A8FE39CE90197F1F700C00000EFE36D
:100B2000FCE93197F1F700C000008FE39CE90197E1
:100B3000F1F700C00000EFE3FCE93197F1F700C0E6
:100B400000008FE39CE90197F1F700C00000DB98FB
:100B5000C59882E390E0EFE3FCE93197F1F700C03C
:100B6000000001970097B9F72F5F3F4F0217130757
:100B700009F096CFDF91CF911F910F9108951A98A8
:100B80001B9AC09AC69AEFE3FCE93197F1F700C0CF
:100B900000008FE39CE90197F1F700C00000EFE34C
:100BA000FCE93197F1F700C000008FE39CE9019761
:100BB000F1F700C00000EFE3FCE93197F1F700C066
:100BC0000000C098C69893CF1A9A1B98C09AC69AEC
:100BD000EFE3FCE93197F1F700C000008FE39CE9F7
:100BE0000197F1F700C00000EFE3FCE93197F1F75E
:100BF00000C000008FE39CE90197F1F700C00000FE
:100C0000EFE3FCE93197F1F700C00000C098C69807
:100C1000A0CF2AEA2FBD2BE12EBD27E833E137BD57
:100C200026BD892BB9F4DB9A86B597B5689F9001EC
:100C3000699F300D789F300D112436952795369594
:100C40002795ABE7B4E10E946520969587959BBDFB
:100C50008ABD0895C09A86B597B5869F9001879FF3
:100C6000300D969F300D1124369527953695279592
:100C7000ABE7B4E10E9465209695879599BD88BD44
:100C8000089587B3806E87BB81EA8FBD8BE08EBDF0
:100C90001BBC1ABC19BC18BC1092790010927800C9
:100CA00008956F927F928F929F92AF92BF92CF9250
:100CB000DF92EF92FF920F931F93CF93DF930F92E8
:100CC000CDB7DEB74C017B01CB010E940F0587B386
:100CD000806E87BB81EA8FBD8BE08EBD1BBC1ABCCA
:100CE00019BC18BC10927900109278004CE5A42E23
:100CF00041E0B42E5FE8652E51E0752EBF92AF92B1
:100D00000E9419220E94160189830F900F90883744
:100D100009F4EFC0CE0101960E9474206C01CC0C46
:100D2000DD1CCC0CDD1CC80ED91ECC0CDD1C0E94B9
:100D300016018983CE0101960E9474208C010C0D4E
:100D40001D1D7F926F920E9419220E9416018983B5
:100D50000F900F90833509F4DCC08E3479F61814A7
:100D6000190464F6C12CD12CE114F10409F073C00C
:100D7000D89AD998B80180E090E00E9409068FE3E4
:100D80009CE90197F1F700C00000EFE3FCE931971F
:100D9000F1F700C000008FE39CE90197F1F700C074
:100DA0000000EFE3FCE93197F1F700C000008FE3AA
:100DB0009CE90197F1F700C00000DB98C59882E339
:100DC00090E0EFE3FCE93197F1F700C000000197F4
:100DD0000097B9F7E114F10409F064C0D898D99AE2
:100DE000B80180E090E00E9409068FE39CE901973A
:100DF000F1F700C00000EFE3FCE93197F1F700C024
:100E000000008FE39CE90197F1F700C00000EFE3D9
:100E1000FCE93197F1F700C000008FE39CE90197EE
:100E2000F1F700C00000DB98C59882E390E0EFE3A3
:100E3000FCE93197F1F700C0000001970097B9F77E
:100E4000FFEFCF1ADF0A8C149D0409F457CFE11489
:100E5000F10409F48DCF1A981B9AB801C7010E94BA
:100E60000906EFE3FCE93197F1F700C000008FE3DA
:100E70009CE90197F1F700C00000EFE3FCE931972E
:100E8000F1F700C000008FE39CE90197F1F700C083
:100E90000000EFE3FCE93197F1F700C00000C098D3
:100EA000C6988DCF1A9A1B98B801C7010E940906EF
:100EB000EFE3FCE93197F1F700C000008FE39CE914
:100EC0000197F1F700C00000EFE3FCE93197F1F77B
:100ED00000C000008FE39CE90197F1F700C000001B
:100EE000EFE3FCE93197F1F700C00000C098C69825
:100EF0009CCF0F90DF91CF911F910F91FF90EF90BA
:100F0000DF90CF90BF90AF909F908F907F906F9029
:100F10000895E114F10491F01A981B9AB801C701E1
:100F20000E94090682E390E0EFE3FCE93197F1F7D4
:100F300000C0000001970097B9F7E0CED89AD99881
:100F4000EDCF2F923F924F925F926F927F928F924E
:100F50009F92AF92BF92CF92DF92EF92FF920F9348
:100F60001F93CF93DF93CDB7DEB761970FB6F89499
:100F7000DEBF0FBECDBF888B998B2889398923307E
:100F8000310509F40BC322242394312C8AE0EAE0D2
:100F9000F1E0DE01119601900D928A95E1F78889C2
:100FA00099890E940F0581EB92E09F938F930E9495
:100FB000192228ED32E03F932F930E94192285E1F8
:100FC00093E09F938F930E94192229E433E03F938B
:100FD0002F930E9419228EE793E09F938F930E9494
:100FE000192223EB33E03F932F930E94192289EEBD
:100FF00093E09F938F930E9419222FE134E03F9357
:101000002F930E9419228DE594E09F938F930E9465
:1010100019222DE834E03F932F930E9419220E9459
:1010200016010FB6F894DEBF0FBECDBF81538930D5
:1010300008F0B9CFE82F880FFF0BEA56F84D0C9453
:101040005C20AAE1B2E0BF93AF930E9419220E94F4
:1010500061029F938F934BE452E05F934F930E9402
:10106000192260E070E0888999890E94A9026B8743
:101070007C878D879E876B857C858D859E850E946C
:10108000E51E7F936F93A0E7B2E0BF93AF930E94FA
:10109000192261E070E0888999890E94A9026B8712
:1010A0007C878D879E876B857C858D859E850E943C
:1010B000E51E7F936F938DE792E09F938F930E943D
:1010C000192262E070E0888999890E94A9026B87E1
:1010D0007C878D879E876B857C858D859E850E940C
:1010E000E51E7F936F938AE892E09F938F930E940F
:1010F000192263E070E0888999890E94A9026B87B0
:101100007C878D879E876B857C858D859E850E94DB
:10111000E51E7F936F9387E992E09F938F930E94E0
:10112000192264E070E0888999890E94A9026B877E
:101130007C878D879E876B857C858D859E850E94AB
:10114000E51E7F936F9384EA92E09F938F930E94B2
:1011500019220FB6F894DEBF0FBECDBF24CFE980B1
:10116000FA800B811C81E016F10634F48D809E809C
:10117000081519050CF495C18EED91E09F938F939E
:101180000E9419220F900F900ECFC1010E944401BE
:101190008FE39CE90197F1F700C00000C1010E94B4
:1011A0004401AFE3BCE91197F1F700C00000C101B1
:1011B0000E94440189879A879F938F9385ED91E0E0
:1011C0009F938F930E9419220F900F900F900F9072
:1011D000EACEC1010E9444018FE39CE90197F1F737
:1011E00000C00000C1010E944401AFE3BCE91197B7
:1011F000F1F700C00000C1010E9444018F8398876D
:10120000DBCFC1010E9444018FE39CE90197F1F714
:1012100000C00000C1010E944401AFE3BCE9119786
:10122000F1F700C00000C1010E9444018D839E833C
:10123000C3CFC1010E9444018FE39CE90197F1F7FC
:1012400000C00000C1010E944401AFE3BCE9119756
:10125000F1F700C00000C1010E9444018B839C8310
:10126000ABCFC1010E9444018FE39CE90197F1F7E4
:1012700000C00000C1010E944401AFE3BCE9119726
:10128000F1F700C00000C1010E94440189839A83E4
:1012900093CF60E070E0888999890E94A9026B87EA
:1012A0007C878D879E876B857C858D859E850E943A
:1012B000E51E7A83698361E070E0888999890E94DC
:1012C000A9026B877C878D879E876B857C858D8542
:1012D0009E850E94E51E7C836B8362E070E08889B6
:1012E00099890E94A9026B877C878D879E876B8571
:1012F0007C858D859E850E94E51E7E836D8363E0DF
:1013000070E0888999890E94A9026B877C878D8704
:101310009E876B857C858D859E850E94E51E7887DE
:101320006F8364E070E0888999890E94A9026B87C5
:101330007C878D879E876B857C858D859E850E94A9
:10134000E51E7A87698784EFC82EDD24D39491EC5B
:10135000A92E91E0B92EC1010E9444017C01FE0139
:10136000319610E081909190E814F9042CF060809F
:1013700071806E147F04E4F51F5F143099F760E00C
:1013800070E084E393E49F938F937F936F93FF9236
:10139000EF92BF92AF920E9419228FE39CE90197CE
:1013A000F1F700C0000091E0C91AD1080FB6F89417
:1013B000DEBF0FBECDBFC114D10469F6F4CD619676
:1013C0000FB6F894DEBF0FBECDBFDF91CF911F9156
:1013D0000F91FF90EF90DF90CF90BF90AF909F90D4
:1013E0008F907F906F905F904F903F902F900895D7
:1013F000C701881999099C01990F440B550B2B873C
:101400003C874D875E87CA01B9010E941D1F6F8707
:10141000472E582E092F68187908C301770CAA0B9C
:10142000BB0B8B879C87AD87BE87BC01CD010E941B
:101430001D1F9B01AC019F859B874C865D860E8797
:101440006B857C858D859E850E94731E762E872EEA
:10145000982E092F212F30E040E050E02B873C8769
:101460004D875E87CA01B9010E941D1F9B01AC0117
:101470007B868C869D860E876B857C858D859E857B
:101480000E94021E20E030E044E352E46B877C8738
:101490008D879E876B857C858D859E850E94CD1F5F
:1014A00072CFAF80B8848A149B040CF065CEC984D7
:1014B000DA84AC14BD040CF05FCE28893989213060
:1014C000310509F46FC0488959894330510509F441
:1014D0006EC0C701FF0CAA0BBB0B8B879C87AD8727
:1014E000BE87BC01CD010E941D1F9B01AC0160E0C5
:1014F00070E0888999890E94F0029801110F440BCD
:10150000550B2B873C874D875E87CA01B9010E9426
:101510001D1F9B01AC0161E070E0888999890E94E0
:10152000F002C401990CAA0BBB0B8B879C87AD877B
:10153000BE87BC01CD010E941D1F9B01AC0162E072
:1015400070E0888999890E94F0029501BB0C440BD8
:10155000550B2B873C874D875E87CA01B9010E94D6
:101560001D1F9B01AC0163E070E0888999890E948E
:10157000F002C601DD0CAA0BBB0B8B879C87AD87E5
:10158000BE87BC01CD010E941D1F9B01AC0164E020
:1015900070E0888999890E94F00205CD22E0222E10
:1015A000312CF4CC81E090E00E94670292CF80E081
:1015B00090E00E9467028DCFCF93DF9300D0CDB72C
:1015C000DEB70E94CE01C098BE016F5F7F4F84E0FE
:1015D00094E00E94EB01C09A0F900F90DF91CF91A1
:1015E0000895C0980E940E022FEF80E792E02150EC
:1015F00080409040E1F700C000001FB8779BFECF0D
:101600008FB190E0982F88271FB8779BFECF2FB11E
:10161000C09A822B0895CF92DF92EF92FF920F93A0
:101620001F93CF93DF9300D00F92CDB7DEB720E0AA
:1016300032E03A83298321E02B839E012F5F3F4FC5
:1016400079018C0106966C01F70181917F010E945E
:10165000F10AF801819391938F01EC15FD05A1F733
:101660000F900F900F90DF91CF911F910F91FF90EE
:10167000EF90DF90CF9008953F924F925F926F92DC
:101680007F928F929F92AF92BF92CF92DF92EF9212
:10169000FF920F931F93CF93DF93CDB7DEB72997B8
:1016A0000FB6F894DEBF0FBECDBF4C0186EA94E0C2
:1016B0009F938F930E9419220E94CE01C098BE0171
:1016C0006F5F7F4F84E094E00E94EB01C09A0F901F
:1016D0000F908114910409F447C0A12CB12CCE01C4
:1016E0000A966C01612C82E0782E3324339494ECBA
:1016F000492E94E0592E78866F8239868E01095FD3
:101700001F4FFE0131967F01F80181918F010E94E8
:10171000F10AF701819391937F010C151D05A1F743
:101720008E818F938D818F938C818F938B818F93FB
:101730008A818F9389818F935F924F920E941922A1
:10174000FFEF21EE84E0F15020408040E1F700C03F
:1017500000009FEFA91AB90A0FB6F894DEBF0FBEBA
:10176000CDBFA814B90439F629960FB6F894DEBF98
:101770000FBECDBFDF91CF911F910F91FF90EF90E2
:10178000DF90CF90BF90AF909F908F907F906F90A1
:101790005F904F903F9008953F924F925F926F926B
:1017A0007F928F929F92AF92BF92CF92DF92EF92F1
:1017B000FF920F931F93CF93DF93CDB7DEB7699757
:1017C0000FB6F894DEBF0FBECDBF6E877F874A8B02
:1017D0005B8B2C8B3D8B9C0136952795398F288F01
:1017E000AC014E7F5F8B4E8B4C01880C991C880C92
:1017F000991C8E859F85880E991ED4011D921D927D
:101800001D921C92139770E1A72EB12C9E01265FAA
:101810003F4F6901612CA2E07A2E33243394442493
:101820004394512C4C0E5D1E440E551E78866F82DB
:1018300039868E01095F1F4FAE014F5F5F4F7A01FE
:10184000D8018D918D010E94F10AF7018193919346
:101850007F010C151D05A1F7D2018D919C919C0172
:1018600040E050E02A873B874C875D87CA01B90179
:101870000E941B1F9B01AC01D4016D917D918D9144
:101880009C910E94021EF401608371838283938382
:10189000F1E0AF1AB108A114B10441F60E891F8915
:1018A000000F111F000F111FEE84FF84E00EF11EC8
:1018B000D7012D913D914D915C912A873B874C87B3
:1018C0005D8720E030E0A9016A857B858C859D8558
:1018D0000E946E1E882309F46EC00C5F1F4FEE85B8
:1018E000FF850E0F1F1FD8012D913D914D915C91E9
:1018F0002E873F87488B598B20E030E0A9016E8509
:101900007F85888999890E946E1E882309F453C0B7
:10191000C88CD98CCC0CDD1CCC0CDD1CAA88BB88F7
:10192000AC0CBD1C2E853F85488959896A857B850D
:101930008C859D850E94021E20E030E040E05FE340
:101940006A877B878C879D876A857B858C859D854B
:101950000E94CD1F20E030E040E85DE36A877B878E
:101960008C879D876A857B858C859D850E94CD1F90
:10197000F50160837183828393832C893D89C20E34
:10198000D31ED8012D913D914D915C91F70160815D
:101990007181828193810E94011E9B01AC0160E0F4
:1019A00070E080E092E40E94731ED6016D937D93F7
:1019B0008D939C93139769960FB6F894DEBF0FBE74
:1019C000CDBFDF91CF911F910F91FF90EF90DF90EE
:1019D000CF90BF90AF909F908F907F906F905F90CF
:1019E0004F903F9008952F923F925F926F927F9217
:1019F0008F929F92AF92BF92CF92DF92EF92FF921F
:101A00000F931F93CF93DF93CDB7DEB7C755D1099F
:101A10000FB6F894DEBF0FBECDBF21961CAE1DAE33
:101A20001EAE1FAE219725961CAE1DAE1EAE1FAE7C
:101A3000259729961CAE1DAE1EAE1FAE299719AA7A
:101A40001AAA1BAA1CAA1DAA1EAA1FAA18AE19AE62
:101A50001AAE1BAE1CAE9E012F5F3F4F64963FAF88
:101A60002EAF649788E1D9011D928A95E9F70E940B
:101A7000CE01C098BE01675E7F4F84E094E00E9473
:101A8000EB01C09ABE016B5D7F4F81E090E00E9448
:101A90002F03BE01675E7F4F80E090E00E942F031E
:101AA000EFE4F0E0EC0FFD1F33961F0121EB32E075
:101AB0003F932F930E941922ACEDB4E0BF93AF93F4
:101AC0000E94192227E135E03F932F930E941922AB
:101AD000A7E5B5E0BF93AF930E94192228E935E04E
:101AE0003F932F930E941922A8EDB5E0BF93AF93C7
:101AF0000E9419222CE136E03F932F930E94192275
:101B0000AEE5B6E0BF93AF930E94192224EA36E017
:101B10003F932F930E941922A2EEB6E0BF93AF939A
:101B20000E94192282E197E09F938F930E941922CD
:101B30000E9416010FB6F894DEBF0FBECDBF8833EA
:101B40000CF01EC182330CF0C4C1803309F46CC1A7
:101B5000813309F0ABCF84E1C82ED12CA12C92E0C7
:101B6000B92E552453942BE2622E27E0722E6196F3
:101B7000BFAEAEAE619762965FAE62978E01015BBB
:101B80001F4FCE01875B9F4F7C01D8018D918D0146
:101B90000E94F10AF701819391937F01201631068B
:101BA000A1F72F96EEACFFAC2F972D960EAD1FAD83
:101BB0002D972B968EAC9FAC2B97C701A0E0B0E081
:101BC00068968CAF9DAFAEAFBFAF6897BC01CD013B
:101BD0000E941B1F2DA53EA54FA558A965966FAF66
:101BE000659766967FAF669767968FAF679768969B
:101BF0009FAF689768966CAD7DAD8EAD9FAD6897D1
:101C00000E94011E29A13AA14BA15CA165966FAF6C
:101C1000659766967FAF669767968FAF679768966A
:101C20009FAF689768966CAD7DAD8EAD9FAD6897A0
:101C30000E94CD1F9F938F937F936F93C801A0E065
:101C4000B0E068968CAF9DAFAEAFBFAF6897BC01F8
:101C5000CD010E941B1F29A53AA54BA55CA5659641
:101C60006FAF659766967FAF669767968FAF6797FA
:101C700068969FAF689768966CAD7DAD8EAD9FAD51
:101C800068970E94011E2D8D3E8D4F8D58A165963F
:101C90006FAF659766967FAF669767968FAF6797CA
:101CA00068969FAF689768966CAD7DAD8EAD9FAD21
:101CB00068970E94CD1F9F938F937F936F93C4016A
:101CC000A0E0B0E068968CAF9DAFAEAFBFAF6897B5
:101CD000BC01CD010E941B1F2DA13EA14FA158A503
:101CE00065966FAF659766967FAF669767968FAF7D
:101CF000679768969FAF689768966CAD7DAD8EAD1F
:101D00009FAD68970E94011E298D3A8D4B8D5C8D89
:101D100065966FAF659766967FAF669767968FAF4C
:101D2000679768969FAF689768966CAD7DAD8EADEE
:101D30009FAD68970E94CD1F9F938F937F936F9362
:101D4000FF92EF921F930F939F928F927F926F92C9
:101D50000E9419229FEFA1EEB4E09150A040B04044
:101D6000E1F700C00000E1E0CE1AD1080FB6F89408
:101D7000DEBF0FBECDBFC114D10409F0F8CE96CEA0
:101D8000883309F46AC0893309F090CE00E010E08E
:101D9000BE016B5D7F4F81E090E00E942F03BE018A
:101DA000675E7F4F80E090E00E942F038CA18F93AD
:101DB0008BA18F938AA18F9389A18F9388A18F93F1
:101DC0008F8D8F938E8D8F938D8D8F938C8D8F9321
:101DD0008B8D8F938A8D8F93898D8F936DA57EA523
:101DE0008FA598A90E94E51E7F936F9369A57AA598
:101DF0008BA59CA50E94E51E7F936F936DA17EA18C
:101E00008FA198A50E94E51E7F936F9381EA97E0CA
:101E10009F938F930E9419220FB6F894DEBF0FBED6
:101E2000CDBF012B09F442CEC95ADF4F0FB6F8944B
:101E3000DEBF0FBECDBFDF91CF911F910F91FF90FD
:101E4000EF90DF90CF90BF90AF909F908F907F905A
:101E50006F905F903F902F90089520E030E0A901AF
:101E600069A97AA98BA99CA90E946E1E882309F4EE
:101E700040C020E030E0A9016DA97EA98FA998ADEE
:101E80000E946E1E882309F448C020E030E0A901BA
:101E900069AD7AAD8BAD9CAD0E946E1E8823D1F1E9
:101EA000BE01635C7F4F81E090E00E948603BE012B
:101EB0006F5C7F4F80E090E00E94860387E897E0A8
:101EC0009F938F930E9419220F900F9001E010E0D2
:101ED0005FCF082E000C990B9E012F5C3F4FAE0187
:101EE000435C5F4FBE016F5F7F4FC2970E94CC0B78
:101EF000DDCD80E090E088589F4F9F938F9387E5DA
:101F000097E09F938F930E9419220F900F900F904C
:101F10000F903CCF82E090E0EECF81E090E0EBCFFD
:101F20008CE080936400E5E6F0E080818B7F808325
:101F300080818860808308958CE080936400E5E66A
:101F4000F0E08081877F8083808184608083089532
:101F5000BF92CF92DF92EF92FF920F931F93CF9396
:101F6000DF936C01181619060CF059C0C0E0D0E0E0
:101F70008CE0B82E9AECE92E97E0F92E01EE17E0EE
:101F8000B0926400809165008B7F809365008091A2
:101F9000650088608093650082E090E00E944401C3
:101FA0009F938F93FF92EF920E9419220F900F90B0
:101FB0000F900F9082E390E0EFE3FCE93197F1F7A7
:101FC00000C0000001970097B9F7B09264008091BB
:101FD0006500877F809365008091650084608093B1
:101FE000650082E090E00E9444019F938F931F93CD
:101FF0000F930E9419220F900F900F900F9082E381
:1020000090E0EFE3FCE93197F1F700C000000197A1
:102010000097B9F72196CC16DD0609F0B1CFDF9114
:10202000CF911F910F91FF90EF90DF90CF90BF90D5
:1020300008950895209171002E7F209371002091C2
:1020400071002D7F209371009C01990F440B550B5B
:1020500060E87EE380E090E00E943A20822F203109
:1020600028F02051330BC901959587958093700016
:1020700008958E7F91E0611101C090E0892B8093DB
:10208000720008958091000190910101892B19F14E
:1020900082E180937200909A919A809171008E7F74
:1020A00080937100809171008D7F809371008CE02E
:1020B000809370008091740084608093740080919C
:1020C00074008160809374008091740080648093B8
:1020D00074007894089580E1DCCFFF920F931F93F2
:1020E000CF93DF93EC017093010160930001109294
:1020F000520D1092510D0E9442108091000190915A
:102100000101892B69F58091510D9091520D8C1729
:102110009D0704F5FF24FA9404EF17E084E690E0AD
:10212000EFE3FCE93197F1F700C000000197009759
:10213000B9F7FF92FF921F930F930E9419220F90FD
:102140000F900F900F908091510D9091520D8C1720
:102150009D0724F3DF91CF911F910F91FF90089578
:1021600084E690E0EFE3FCE93197F1F700C000006E
:1021700001970097B9F71C161D0664F720E030E0C0
:102180001092520D1092510D809174008E70816AE0
:102190008093740084E690E0EFE3FCE93197F1F777
:1021A00000C0000001970097B9F72F5F3F4FC2179B
:1021B000D30731F7DF91CF911F910F91FF900895D1
:1021C0001F920F920FB60F9211240BB60F922F93FE
:1021D0003F934F935F936F937F938F939F93AF93AF
:1021E000BF93EF93FF938091000190910101892BA0
:1021F00009F451C080917100887F8831B1F198F560
:10220000883011F08031E1F489EF97E09F938F934C
:102210000E9419220F900F9080910001909101016E
:10222000892B09F452C080E180937300809174007F
:102230008F708068809374001092520D1092510D2F
:10224000FF91EF91BF91AF919F918F917F916F918E
:102250005F914F913F912F910F900BBE0F900FBE4A
:102260000F901F901895883259F78091510D9091D9
:10227000520D181619065CF587E198E09F938F932D
:102280000E941922809174008F70806D8093740079
:102290000F900F90D5CFF8948091510D9091520DE1
:1022A0009C012F5F3F4F3093520D2093510D9F9310
:1022B0008F9384EF97E09F938F930E9419227894D5
:1022C0000F900F900F900F90BBCF82E1ADCF8BE0BE
:1022D00098E09F938F930E94192281E3809373006B
:1022E000809174008F708068809374008091510D8C
:1022F0009091520D01969093520D8093510D0F9035
:102300000F909ECF90930301809302010895813036
:10231000910571F08230910539F0892B09F008950B
:102320008BB38F708BBB089585B3877885BB089579
:1023300082B38F7082BB08958BB38F708BBB85B3D4
:10234000877885BB82B38F7082BB08950F931F93EC
:10235000CF93DF939C018B01EA0180E090E490939E
:10236000560D8093550D2130310509F44DC02230B2
:102370003105C1F0232B51F1BA010E94EB01888194
:10238000998196FF1CC00115110539F0C8019170A3
:1023900092689093560D8093550DBE01C8010E941E
:1023A000EB014FC0AA98BA018091550D9091560D3E
:1023B0000E94EB01AA9A8881998196FD49C080E02C
:1023C00090E0DF91CF911F910F910895A898BA01E5
:1023D0008091550D9091560D0E94EB01A89A88812D
:1023E000998196FFECCF0115110539F0C801917064
:1023F00092689093560D8093550DA898BE01C80120
:102400000E94EB01A89A1DC0A998BA018091550DB0
:102410009091560D0E94EB01A99A8881998196FFAF
:10242000CECF0115110539F0C801917092689093D3
:10243000560D8093550DA998BE01C8010E94EB016D
:10244000A99A81E090E0DF91CF911F910F910895BB
:102450000115110539F0C801917092689093560DDD
:102460008093550DAA98BE01C8010E94EB01AA9A5B
:10247000E8CF1F920F920FB60F9211240BB60F9256
:102480002F933F934F935F936F937F938F939F937C
:10249000AF93BF93EF93FF93CF93DF9300D0CDB76C
:1024A000DEB7F89480E090E49093560D8093550D3C
:1024B000A898BE016F5F7F4F8091550D9091560D8A
:1024C0000E94EB01A89A89819A8196FF0BC0A89877
:1024D000BE016F5F7F4F80E090E00E94EB01A89A01
:1024E00089819A8197FD18C078940F900F90DF91A1
:1024F000CF91FF91EF91BF91AF919F918F917F917C
:102500006F915F914F913F912F910F900BBE0F9064
:102510000FBE0F901F90189520910201309103017A
:10252000232B29F49093540D8093530DDDCF9F936B
:102530008F938EE198E09F938F930E9419220F90C2
:102540000F900F900F90D0CF1F920F920FB60F9257
:1025500011240BB60F922F933F934F935F936F937A
:102560007F938F939F93AF93BF93EF93FF93CF93FB
:10257000DF9300D0CDB7DEB7F89480E090E490937D
:10258000560D8093550DA998BE016F5F7F4F8091C6
:10259000550D9091560D0E94EB01A99A89819A815F
:1025A00096FF0BC0A998BE016F5F7F4F80E090E05F
:1025B0000E94EB01A99A89819A8197FD18C07894AD
:1025C0000F900F90DF91CF91FF91EF91BF91AF915D
:1025D0009F918F917F916F915F914F913F912F913B
:1025E0000F900BBE0F900FBE0F901F90189520916B
:1025F000020130910301232B29F49093540D809311
:10260000530DDDCF9F938F9387E398E09F938F9334
:102610000E9419220F900F900F900F90D0CF1F9211
:102620000F920FB60F9211240BB60F922F933F9378
:102630004F935F936F937F938F939F93AF93BF93CA
:10264000EF93FF93CF93DF9300D0CDB7DEB7F8942D
:1026500080E090E49093560D8093550DAA98BE01AA
:102660006F5F7F4F8091550D9091560D0E94EB0149
:10267000AA9A89819A8196FF0BC0AA98BE016F5FC2
:102680007F4F80E090E00E94EB01AA9A89819A81B5
:102690002091020130910301232BE1F49093540D1A
:1026A0008093530D78940F900F90DF91CF91FF910D
:1026B000EF91BF91AF919F918F917F916F915F91BA
:1026C0004F913F912F910F900BBE0F900FBE0F9027
:1026D0001F9018959F938F9381E598E09F938F9318
:1026E0000E9419220F900F900F900F90DBCF833034
:1026F0009105C9F03CF48130910589F0029759F4B5
:10270000DE9A08958430910561F0059721F48BB32A
:10271000806F8BBB08958BB38F708BBB0895DF9A4E
:102720000895DC9A0895DD9A089583309105C9F0E3
:102730003CF48130910589F0029759F4AC9A0895E0
:102740008430910561F0059721F485B3886785BBD6
:10275000089585B3877885BB0895AB9A0895AE9A9E
:102760000895AD9A089583309105C9F03CF4813005
:10277000910589F0029759F4959A0895843091054E
:1027800061F0059721F482B3806F82BB089582B314
:102790008F7082BB0895949A0895979A0895969A97
:1027A0000895EF92FF920F931F93CF93DF9300D082
:1027B000CDB7DEB78C017B01AE014F5F5F4F60EAA2
:1027C00070EE0E94A61101301105F9F002301105DA
:1027D00021F101151105E9F089E698E09F938F93A7
:1027E0000E9419220F900F90AE014F5F5F4F60EA79
:1027F00074EEC8010E94A6110F900F90DF91CF9147
:102800001F910F91FF90EF900895C7010E94B3139D
:10281000EBCFC7010E947713E7CFC7010E94951342
:10282000E3CFEF92FF920F931F93CF93DF9300D0EC
:10283000CDB7DEB77C01FB01008110E01268AE016C
:102840004F5F5F4FB801C7010E94A611892BB9F3F2
:1028500080E090E00F900F90DF91CF911F910F914A
:10286000FF90EF900895CF93DF9300D0CDB7DEB700
:10287000AE014F5F5F4F60E074E80E94A6110F90B9
:102880000F90DF91CF910895CF93DF9300D0CDB714
:10289000DEB7AE014F5F5F4F60E076E80E94A611A1
:1028A0000F900F90DF91CF9108958130910561F0E5
:1028B0008230910531F0892B09F00895159A1D9AFF
:1028C0000895179A1F9A0895169A1E9A08958130AE
:1028D000910561F08230910531F0892B09F008955E
:1028E000159A1D980895179A1F980895169A1E987C
:1028F00008950F931F93CF93DF9300D000D0CDB7EF
:10290000DEB78C010E94CE010130110509F47EC0B2
:102910000230110509F451C0012B39F182ED98E024
:102920009F938F930E9419220F900F908091020124
:1029300090910301892B71F08C818F938B818F9300
:1029400082EF98E09F938F930E9419220F900F902F
:102950000F900F9080E090E00F900F900F900F90ED
:10296000DF91CF911F910F9108958AB3806F8ABB39
:102970001C9A89B7806189BFAE014D5F5F4F60EAE5
:1029800074EE80E090E00E94A611AE014F5F5F4FB1
:1029900060E076E880E090E00E94A611809102015C
:1029A00090910301892BB1F283EA98E09F938F9372
:1029B0000E9419220F900F90B9CF84B3886784BB0F
:1029C000939A89B7886089BFAE014D5F5F4F60EA17
:1029D00074EE82E090E00E94A611AE014F5F5F4F5F
:1029E00060E076E882E090E00E94A611809102010A
:1029F00090910301892B09F4ADCF83EC98E09F936C
:102A00008F930E9419220F900F9090CF81B3806F07
:102A100081BB929A89B7846089BFAE014D5F5F4FD9
:102A200060EA74EE81E090E00E94A611AE014F5F73
:102A30005F4F60E076E881E090E00E94A61180910F
:102A4000020190910301892B09F484CF83EB98E074
:102A50009F938F930E9419220F900F9067CF80E071
:102A600090E00E94791481E090E00E94791482E065
:102A700090E00C9479147F928F929F92AF92BF92C4
:102A8000CF92DF92EF92FF920F931F93CF93DF933A
:102A900000D0CDB7DEB7F82EE92E862E772E942EF5
:102AA00059010E9479148BB38F708BBB85B38778E3
:102AB00085BB82B38F7082BB789480910201909124
:102AC0000301892B09F078C0682D772D8F2D9E2D5D
:102AD0000E94D113AE014F5F5F4F60E076E88F2D0B
:102AE0009E2D0E94A6111A141B040CF055C0C09014
:102AF0000201D0900301C114D10409F066C0911005
:102B000004C08F2D9E2D0E94871186011127126807
:102B1000AE014F5F5F4FB8018F2D9E2D0E94A61111
:102B2000892BB1F39920C9F08FEFC81AD80AAC14D9
:102B3000BD0491F18091020190910301892B29F349
:102B4000DF92CF9286E299E09F938F930E941922A1
:102B50000F900F900F900F90D8CF682D772D8F2D5D
:102B60009E2D0E94D1138FEFC81AD80AAC14BD0451
:102B700099F08091020190910301892B11F2DF926B
:102B8000CF9286E299E09F938F930E9419220F9033
:102B90000F900F900F90B3CF0F900F90DF91CF91C8
:102BA0001F910F91FF90EF90DF90CF90BF90AF906B
:102BB0009F908F907F90089581E199E09F938F93EC
:102BC0000E9419220F900F907FCFC12CD12CD7CF0C
:102BD0008F929F92AF92BF92CF92DF92EF92FF922D
:102BE0000F931F93CF93DF93CDB7DEB728970FB620
:102BF000F894DEBF0FBECDBF4C0180E090E00E9494
:102C0000791482E090E00E94791481E090E00E94C3
:102C100079148BB38F708BBB85B3877885BB82B3F8
:102C20008F7082BB159A1D98179A1F98169A1E9836
:102C30007894AE014F5F5F4F60E076E880E090E00F
:102C40000E94A611AE014F5F5F4F60E076E882E020
:102C500090E00E94A611AE014F5F5F4F60E076E802
:102C600081E090E00E94A611F894AE014F5F5F4FA3
:102C700060E074E8C4010E94A611C4010E945514CA
:102C800084E6C82ED12C90E3A92E99E0B92EFE013E
:102C900031967F0100E010E02BB32F702BBB25B3E2
:102CA000277825BB22B32F7022BB0F5F1F4FB801BF
:102CB000C4010E94D1132FEF82E597E0215080409C
:102CC0009040E1F700C00000EFEFF2E527E0E150AF
:102CD000F0402040E1F700C0000080E090E00E945A
:102CE0004401F701819391937F0104301105A1F60E
:102CF00088858F938F818F938E818F938D818F9312
:102D00008C818F938B818F938A818F9389818F930D
:102D1000BF92AF920E941922F1E0CF1AD1080FB6EC
:102D2000F894DEBF0FBECDBFC114D10409F0AFCF00
:102D300028960FB6F894DEBF0FBECDBFDF91CF91BE
:102D40001F910F91FF90EF90DF90CF90BF90AF90C9
:102D50009F908F900895AF92BF92CF92DF92EF92A3
:102D6000FF920F931F93CF93DF9300D0CDB7DEB7C1
:102D70006C015B0180E090E00E94791481E090E0BA
:102D80000E94791482E090E00E9479148BB38F70D6
:102D90008BBB85B3877885BB82B38F7082BBF89479
:102DA000AE014F5F5F4F60E074E8C6010E94A6115C
:102DB000C6010E945514B501C6010E94D11308EE48
:102DC00013E081E5E82E89E0F82E80E090E00E9493
:102DD00044019F938F93BF92AF92DF92CF92FF9265
:102DE000EF920E9419222FEF80E792E0215080405D
:102DF0009040E1F700C00000015011090FB6F894AF
:102E0000DEBF0FBECDBF01151105F9F60F900F9073
:102E1000DF91CF911F910F91FF90EF90DF90CF90B6
:102E2000BF90AF900895CF93DF9300D0CDB7DEB7BA
:102E30008C017B010E942F15159A1D9882E090E06D
:102E40000E94671481E090E00E946714AE014F5F1A
:102E50005F4F60E076E880E090E00E94A611AE014E
:102E60004F5F5F4F60E076E882E090E00E94A6113D
:102E7000AE014F5F5F4F60E076E881E090E00E9436
:102E8000A6110E949C11B701C8010E94D113789429
:102E900085E699E09F938F930E9419220F900F90DF
:102EA000FFCF2F923F924F925F926F927F928F92BD
:102EB0009F92AF92BF92CF92DF92EF92FF920F93C9
:102EC0001F93CF93DF9300D000D0CDB7DEB78B83B5
:102ED0009C83109203011092020181E899E09F9374
:102EE0008F930E94192286E999E09F938F930E9405
:102EF00019228CEA99E09F938F930E9419220F90D8
:102F00000F900F900F900F900F908B819C8118164F
:102F100019060CF08DC0212C312C81E1482E89E05E
:102F2000582E96E2A92E99E0B92E23E9622E2BE0C5
:102F3000722EE12CF12C88248394912C1092540D44
:102F40001092530DC7010E9479148BB38F708BBB05
:102F500085B3877885BB82B38F7082BB789480916C
:102F6000020190910301892B09F084C0B401C701CB
:102F70000E94D113AE014F5F5F4F60E076E8C7015A
:102F80000E94A611C12CD12C8091020190910301C5
:102F9000892B09F064C086011268AE014F5F5F4F54
:102FA000B801C7010E94A611892BB9F39FEFC91A76
:102FB000D90A2AE0C216D10439F781E02091530DD5
:102FC0003091540D232B09F480E01F928F937F9250
:102FD0006F920E9419228FEF881A980A0F900F9013
:102FE0000F900F9096E08916910409F0A7CF82EC1C
:102FF00099E09F938F930E9419228FEFE81AF80AA5
:103000000F900F9093E0E916F10409F094CF80EB54
:103010009BE09F938F930E9419228FEF281A380A02
:103020000F900F908B819C818215930509F081CFC1
:103030000F900F900F900F90DF91CF911F910F91F4
:10304000FF90EF90DF90CF90BF90AF909F908F90C8
:103050007F906F905F904F903F902F900895DF92F8
:10306000CF92BF92AF920E9419220F900F900F90B3
:103070000F9091CF5F924F920E9419220F900F9064
:1030800075CF0F931F93CF93DF938C0118161906FA
:1030900094F4C0E0D0E081E090E00E947F0481E001
:1030A00090E00E94A80F81E090E00E943C0B2196E6
:1030B0000C171D0781F7DF91CF911F910F91089594
:1030C0005F9BFECF8CB190E00895AC01DB016230D4
:1030D00071058CF0FC019C0121503109260F371F2E
:1030E0005F9BFECF8CB18A3061F08D3051F08193BF
:1030F000E217F307A9F74A0F5B1FFA013197108215
:103100000895108208952F923F924F925F926F928E
:103110007F928F929F92AF92BF92CF92DF92EF9267
:10312000FF920F931F93CF93DF93CDB7DEB76197D5
:103130000FB6F894DEBF0FBECDBF7C013B015A0134
:10314000DC0117961C921E92169713968C9181FFA4
:10315000A9C3F7019381F30193FD859193FF8191B9
:103160003F01882309F468C0853239F493FD8591C5
:1031700093FF81913F01853239F4B70190E00E94BD
:10318000E92165015601E5CF812C512C00E0003288
:10319000D0F58B3289F158F4803279F1833289F19C
:1031A0009BE9980F933008F03BC20F7E6FC08D32C1
:1031B00031F1803349F020ED280F2A3090F18E3222
:1031C00009F056C0006401C00160F30193FD8591D0
:1031D00093FF81913F018111DACF102F197F803742
:1031E00009F424C308F01AC3883509F421C38F36C3
:1031F00019F528E030E0F5C202600460E6CF08600F
:10320000E4CF0061E2CF07FD3AC020ED280F2A305D
:1032100078F406FF06C0FAE08F9E200D1124822E5E
:10322000D4CF3AE0539E200D1124522E0062CDCF10
:103230008E32F1F406FFC6CFF70186819781619641
:103240000FB6F894DEBF0FBECDBFDF91CF911F91B7
:103250000F91FF90EF90DF90CF90BF90AF909F9035
:103260008F907F906F905F904F903F902F90089538
:103270008C3611F40068A9CF883609F4A6CF9BEBF1
:10328000980F933008F08CCF0061805E402F40741F
:10329000442E0F73902E4111A8C0853609F0AFC09F
:1032A000689496F866E0862E16E0F501819191917A
:1032B000A191B1916F018C879D87AE87BF87042D47
:1032C000282DAE014F5F5F4FBC01CD010E949220BF
:1032D0005C013980832D8C7030FE02C033FED1C07A
:1032E000082F91FCCAC092FEAAC08111E1C000E281
:1032F00097FEF9C04A0C34FE04C08A81813309F478
:103300004A9414140CF01CC1F8E0F41510F498E081
:10331000492EC501B7FE02C080E090E00196011180
:103320000196112331F0212F30E02F5F3F4F820FA4
:10333000931F252D30E0581A821793070CF0512C5B
:10334000892D8970811102C05110FDC0002329F020
:10335000B701802F90E00E94E92193FC02C0511038
:10336000F9C097FE0FC14501B7FE02C0812C912C18
:10337000C5018819990961E070E06C0F7D1F680F25
:10338000791F7D876C87C50184199109998B888B7A
:10339000012F10E0119501951109A814B9040CF43E
:1033A000E0C0A889B989A815B9050CF0DAC0EC8588
:1033B000FD858181F1E08F1A91082C853D852F5F75
:1033C0003F4F3D872C87801691060CF4CCC0B70187
:1033D00090E00E94E9213FEF83169306F1F6B701D2
:1033E0008EE290E00E94E921D8CF853679F4689486
:1033F00096F867E06815F8F0182D412C56CF35E0A7
:10340000832E8636C9F756E0852E02C0863671F4C3
:10341000689497F8882D5BE3581508F48BE34424EF
:103420004394480E182D47E0842E3FCF10E08820AB
:1034300021F38A94DECF27E0822E17E0DECF8823A7
:1034400009F456CFF3E0F51510F1512C00E910E026
:1034500033FE02C00CE810E0592D5071952EF80192
:103460008491811137C0552009F48CCEB70180E2D8
:1034700090E00E94E9215A94F6CF811127C00BE217
:1034800037CF0DE2882309F433CF1DE212C02DEFB0
:10349000520E192D18701111D9CFB70180E290E0AA
:1034A0000E94E9215A945110F8CF112371F208C0FB
:1034B00010E234E0351560F44CEF540E93FEEDCF7E
:1034C000B701812F90E00E94E921C0CF1BE2F1CF2C
:1034D000512CF6CF91108052B70190E00E94E92163
:1034E0000F5F1F4FBCCF96FE03C085E090E017CF63
:1034F000E12FF0E0EA15FB053CF02CEFA2162FEFD0
:10350000B20614F0689497F8329641E050E04C0F00
:103510005D1FE40FF51F01C01150112319F08291B6
:103520008033D1F397FEE1CF44244394410E812FA1
:1035300090E01A19A816B9060CF4EBCE10E0E9CE0B
:1035400044244394E6CEB70180E290E00E94E92152
:103550005A94FACEB70180E390E00E94E9215A9490
:10356000FECE80E327CFA814B90439F49A819633AC
:1035700018F4953311F434FE81E3B70190E00E9412
:10358000E92171CF8A81813311F0E89434F8B701D1
:1035900090E00E94E921111125C085E490E094FC9F
:1035A00002C085E690E0B7010E94E921B7FC05C0A2
:1035B000A114B10471F534FE2CC0B194A194B108EA
:1035C0008DE2B70190E00E94E92180E35AE0A51660
:1035D000B1040CF5B70190E00E94E921B701C501E3
:1035E000C096CDCFB7018EE290E00E94E9211E5F28
:1035F00002E0802F0F5FE1E0F0E0EC0FFD1FE80F2D
:10360000F11D8081B70190E00E94E9210113F1CF03
:10361000C4CF8BE2D6CF8F5F4AE0A41AB108D6CFD1
:103620008336B1F0833709F43CC0833509F04FC0CD
:10363000F501219031906F01682D70E006FD02C008
:103640006FEF7FEFC1010E946A215C0100680EC02C
:10365000650162E0C60ED11CD5018C918983AA2434
:10366000A394B12CFE0131961F010F7703FD05C015
:10367000852D90E0A816B90618F1A114B10409F43B
:10368000F2CEF10107FD859107FF81911F01B7017E
:1036900090E00E94E92151105A94F1E0AF1AB1086C
:1036A000ECCFD5012D903D906D01682D70E006FDA9
:1036B00002C06FEF7FEFC1010E9475215C01D5CF81
:1036C000B70180E290E00E94E9215A94D1CF84367C
:1036D00019F0893609F07EC007FF73C0D5016D91DE
:1036E0007D918D919D916D010F76402E97FF09C0C0
:1036F00090958095709561957F4F8F4F9F4F6894FF
:1037000047F82AE030E08E010F5F1F4FA8010E94AA
:103710004F22B82EB01A1B2D042D46FE0AC00E7F74
:10372000B81438F444FE04C042FC02C0042D0E7EDE
:10373000182D04FF90C0FE01EB0DF11D8081803338
:1037400009F083C0097E03FD0EC000FF93C08B2CDF
:10375000151518F4850C811A152D852D811B511610
:1037600008F480E0180F151508F086C0511A04FF00
:1037700085C0B70180E390E00E94E92102FF09C003
:1037800088E590E001FD02C088E790E0B7010E9463
:10379000E921B81408F47FC0BA940B2D10E00F5F34
:1037A0001F4FCE0101965C01080F191FD8018E91A1
:1037B0008D01B70190E00E94E921A016B106B1F792
:1037C00052CEF501619171916F01072E000C880BAB
:1037D000990B8ACF102F1F7E2AE030E0853709F041
:1037E000FCCC17FF2AC0D5014D915D916D917D9163
:1037F0006D014C875D876E877F87BE016F5F7F4F4E
:103800005B01AB016C857D858E859F850E944F2273
:10381000B82EBA18412EE89447F87DCF883709F0C2
:103820000BCD14FD146020E130E0DBCF1061F9CF47
:1038300004FD166020E132E0D4CFF5018191919131
:103840006F01AC0160E070E0D4CF02FD02C01F5FE9
:103850007ACF1E5F78CF802F8678882309F473CFC4
:10386000F6CFB70180E290E00E94E921A394A5146D
:10387000C0F373CFA12EFBCF512C79CF802F867848
:10388000882309F486CF8BE201FF80E207FD8DE2F9
:10389000B70190E07CCFB70180E390E00E94E9217E
:1038A0008A9477CF8FEF9FEFCACCCDB7DEB72C9736
:1038B0000FB6F894DEBF0FBECDBF0E94930183EB1D
:1038C00092E09F938F930E94192285EC99E09F9339
:1038D0008F930E94192283ED99E09F938F930E940A
:1038E000192281EE99E09F938F930E94192283EF12
:1038F00099E09F938F930E94192282E19AE09F930F
:103900008F930E94192288E39AE09F938F930E94DD
:10391000192287E69AE09F938F930E94192287E7E6
:103920009AE09F938F930E9419228DE89AE09F93CB
:103930008F930E94192280EA9AE09F938F930E94AE
:10394000192282EB9AE09F938F930E94192288ECB0
:103950009AE09F938F930E9419228EEF9AE09F9393
:103960008F930E9419228BE19BE09F938F930E947B
:10397000192281E59BE09F938F930E9419220FB635
:10398000F894DEBF0FBECDBF87E69BE09F938F9379
:103990000E9419228DE79BE09F938F930E9419222A
:1039A0000E9416010F900F900F900F908053863356
:1039B00088F5E82F880FFF0BE156F84D0C945C203A
:1039C00068E070E08E010F5F1F4FC8010E9465180C
:1039D000CE0109969F938F9302969F938F9380E9D0
:1039E0009BE09F938F931F930F930E942D228A85B4
:1039F0008F9389858F938C858F938B858F9386E9A1
:103A00009BE09F938F930E9419220FB6F894DEBF1C
:103A10000FBECDBF88E198E00FB6F894A89581BDA0
:103A20000FBE91BDFFCF61E070E08AE090E00E94A0
:103A30005106F0CF81EB92E09F938F930E94192261
:103A400080E79CE09F938F930E94192285E99CE078
:103A50009F938F930E94192285EC9CE09F938F93F4
:103A60000E94192289EE9CE09F938F930E94192255
:103A700084E19DE09F938F930E9419220E9416017A
:103A80009FEC980F0FB6F894DEBF0FBECDBF9330FA
:103A900008F0A0C0805390E00E94A107BBCF8AE04D
:103AA00090E00E947F04B6CF60E070E08AE090E092
:103AB0000E944105AFCF61E070E08AE090E00E9493
:103AC0004105A8CF84E190E00E943C0BA3CF84E1A4
:103AD00090E00E94A80F9ECF0E9419109BCF60E03B
:103AE00070E084E190E00E946D1094CF61E070E09E
:103AF00084E190E00E946D108DCF81E090E00E9403
:103B0000821183EB9BE09F938F930E9419228CEC90
:103B10009BE09F938F930E9419220E941601082F09
:103B2000880F110B0053110981EB92E09F938F9343
:103B30000E94192287EF9BE09F938F930E94192286
:103B400086E09CE09F938F930E9419228AE19CE07B
:103B50009F938F930E94192286E39CE09F938F93FB
:103B60000E9419220E941601F82E0FB6F894DEBFAB
:103B70000FBECDBF31E3831781F18DE49CE09F93AD
:103B80008F930E9419220E941601682F880F770BCD
:103B9000605371090F900F9082E3F81659F193E387
:103BA000F91621F1C8010E94131734CF84E190E087
:103BB0000E9441182FCF8EE190E00E9451172ACF2A
:103BC0000E94940427CF60E070E08AE090E00E94B9
:103BD000510620CF0E94F30C1DCF24E630E040E0D8
:103BE00060E070E0C8010E943B1514CFC8010E943C
:103BF000AB1610CF24E630E041E0C8010E943B152F
:103C000009CF5058BB27AA270E94191E0C94931F56
:103C10000E94851F38F00E948C1F20F039F49F3FCE
:103C200019F426F40C94821F0EF4E095E7FB0C9433
:103C30007C1FE92F0E94A41F58F3BA17620773076D
:103C40008407950720F079F4A6F50C94C61F0EF4AE
:103C5000E0950B2EBA2FA02D0B01B90190010C019C
:103C6000CA01A0011124FF27591B99F0593F50F4B4
:103C7000503E68F11A16F040A22F232F342F44270C
:103C8000585FF3CF469537952795A795F040539504
:103C9000C9F77EF41F16BA0B620B730B840BBAF0D4
:103CA0009150A1F0FF0FBB1F661F771F881FC2F73F
:103CB0000EC0BA0F621F731F841F48F48795779553
:103CC0006795B795F7959E3F08F0B0CF9395880F0D
:103CD00008F09927EE0F9795879508950E94581F31
:103CE00008F481E008950E94871E0C94931F0E949F
:103CF0008C1F58F00E94851F40F029F45F3F29F087
:103D00000C947C1F51110C94C71F0C94821F0E94AD
:103D1000A41F68F39923B1F3552391F3951B550B19
:103D2000BB27AA2762177307840738F09F5F5F4F8E
:103D3000220F331F441FAA1FA9F335D00E2E3AF0CD
:103D4000E0E832D091505040E695001CCAF72BD0E5
:103D5000FE2F29D0660F771F881FBB1F2617370736
:103D60004807AB07B0E809F0BB0B802DBF01FF2768
:103D700093585F4F3AF09E3F510578F00C947C1FAA
:103D80000C94C71F5F3FE4F3983ED4F38695779574
:103D90006795B795F7959F5FC9F7880F911D969521
:103DA000879597F90895E1E0660F771F881FBB1F7D
:103DB000621773078407BA0720F0621B730B840B2A
:103DC000BA0BEE1F88F7E09508950E94EC1E6894E8
:103DD000B1110C94C71F08950E94AC1F88F09F5723
:103DE00098F0B92F9927B751B0F0E1F0660F771F1F
:103DF000881F991F1AF0BA95C9F714C0B13091F015
:103E00000E94C61FB1E008950C94C61F672F782F3B
:103E10008827B85F39F0B93FCCF3869577956795D9
:103E2000B395D9F73EF490958095709561957F4F45
:103E30008F4F9F4F0895E89409C097FB3EF49095EB
:103E40008095709561957F4F8F4F9F4F9923A9F073
:103E5000F92F96E9BB279395F69587957795679502
:103E6000B795F111F8CFFAF4BB0F11F460FF1BC046
:103E70006F5F7F4F8F4F9F4F16C0882311F096E9D9
:103E800011C0772321F09EE8872F762F05C0662387
:103E900071F096E8862F70E060E02AF09A95660F40
:103EA000771F881FDAF7880F9695879597F90895F9
:103EB000990F0008550FAA0BE0E8FEEF161617063B
:103EC000E807F907C0F012161306E407F50798F0A3
:103ED000621B730B840B950B39F40A2661F0232BBC
:103EE000242B252B21F408950A2609F4A140A69538
:103EF0008FEF811D811D089597F99F6780E870E01D
:103F000060E008959FEF80EC089500240A9416164F
:103F1000170618060906089500240A9412161306B7
:103F2000140605060895092E0394000C11F4882345
:103F300052F0BB0F40F4BF2B11F460FF04C06F5F61
:103F40007F4F8F4F9F4F089557FD9058440F551F37
:103F500059F05F3F71F04795880F97FB991F61F00B
:103F60009F3F79F087950895121613061406551F82
:103F7000F2CF4695F1DF08C0161617061806991FEE
:103F8000F1CF86957105610508940895E894BB27E3
:103F900066277727CB0197F908950E94E01F0C94BC
:103FA000931F0E94851F38F00E948C1F20F09523DC
:103FB00011F00C947C1F0C94821F11240C94C71FC9
:103FC0000E94A41F70F3959FC1F3950F50E0551FF9
:103FD000629FF001729FBB27F00DB11D639FAA275E
:103FE000F00DB11DAA1F649F6627B00DA11D661FAD
:103FF000829F2227B00DA11D621F739FB00DA11DCE
:10400000621F839FA00D611D221F749F3327A00D87
:10401000611D231F849F600D211D822F762F6A2F23
:1040200011249F5750409AF0F1F088234AF0EE0F88
:10403000FF1FBB1F661F771F881F91505040A9F7B5
:104040009E3F510580F00C947C1F0C94C71F5F3F6E
:10405000E4F3983ED4F3869577956795B795F795F1
:10406000E7959F5FC1F7FE2B880F911D9695879569
:1040700097F90895A1E21A2EAA1BBB1BFD010DC0E2
:10408000AA1FBB1FEE1FFF1FA217B307E407F50708
:1040900020F0A21BB30BE40BF50B661F771F881FE4
:1040A000991F1A9469F760957095809590959B017A
:1040B000AC01BD01CF010895EE0FFF1F0024001CCD
:1040C0000BBE0790F691E02D0994A29FB001B39F1B
:1040D000C001A39F700D811D1124911DB29F700D11
:1040E000811D1124911D0895FC0188279927E894CA
:1040F00021912032E9F3293010F02E30C8F32B3211
:1041000041F02D3239F4689404C00E948021820F5E
:10411000911D219120532A30C0F31EF49095819572
:104120009F4F0895283008F027E03327DA01990FD0
:10413000311D87FD916000966105710539F432608B
:104140002E5F3D9330E32A95E1F708959F3F30F0CD
:1041500080387105610509F03C5F3C5F3D9391300B
:1041600008F08068911DDF93CF931F930F93FF9208
:10417000EF92192F987F9695E92F96959695E90FCE
:10418000FF27E251FF4F99273327EE24FF24A70191
:10419000E70105900894079428F4360FE71EF81EEF
:1041A000491F511D660F771F881F991F0694A1F79D
:1041B0000590079428F4E70EF81E491F561FC11DED
:1041C000770F881F991F661F0694A1F70590079423
:1041D00028F4F80E491F561FC71FD11D880F991FBD
:1041E000661F771F0694A1F70590079420F4490FE6
:1041F000561FC71FD81F990F661F771F881F069469
:10420000A9F784911095177041F0D695C7955795E9
:104210004795F794E7941A95C1F7E4E9F0E06894BC
:104220001590159135916591959105907FE2739563
:10423000E118F10A430B560BC90BD009C0F7E10C8A
:10424000F11E431F561FC91FD01D7EF4703311F499
:104250008A95E6CFE894015030F0080F0AF4002761
:10426000021708F4202F2395022F7A3328F079E3E0
:104270007D932A95E9F710C07D932A9589F60694D7
:1042800097956795379517951794E118F10A430BA1
:10429000560BC90BD00998F023957E9173957A330C
:1042A00008F070E37C932013B8F77E9170617D93E2
:1042B00030F0839571E37D9370E32A95E1F7112443
:1042C000EF90FF900F911F91CF91DF91992787FD7C
:1042D00090950895FC010590615070400110D8F749
:1042E000809590958E0F9F1F0895FC01615070403E
:1042F00001900110D8F7809590958E0F9F1F08951B
:104300007AE0979F902D879F802D910D112408951D
:104310000F931F93CF93DF938C01EB01892B11F542
:10432000209741F4E0E0F0E0CF01DF91CF911F91C1
:104330000F9108956EE070E081E090E00E94AF255B
:10434000FC01892B79F3D387C28781E8838380912D
:10435000570D9091580D892B39F7F093580DE09334
:10436000570DE2CF6EE070E081E090E00E94AF2553
:10437000FC01892BB9F280E88383209771F0D38701
:10438000C28781E883838091570D9091580D892BC6
:1043900021F4F093580DE093570D11870087838126
:1043A000826083838091590D90915A0D892B09F079
:1043B000BBCFF0935A0DE093590D80915B0D909116
:1043C0005C0D892B09F0B0CFF0935C0DE0935B0D91
:1043D000ABCF0F931F93CF93DF93182F092FEB01D0
:1043E0008B8181FD09C01FEF0FEF812F902FDF918F
:1043F000CF911F910F91089582FF14C02E813F81AC
:104400008C819D81281739073CF4E881F981CF011F
:1044100001969983888310838E819F8101969F8363
:104420008E83E3CFE885F985812F0995892BA1F348
:10443000DACFCF93DF93CDB7DEB7AE014B5F5F4FDF
:10444000FA0161917191AF018091590D90915A0DCE
:104450000E948318DF91CF910895CF93DF93CDB75A
:10446000DEB72E970FB6F894DEBF0FBECDBF85E046
:104470008C838B899C899A838983AE01495E5F4FC7
:104480006D897E89CE0101960E9471242E960FB609
:10449000F894DEBF0FBECDBFDF91CF910895FA0132
:1044A000AA27283051F1203181F1E8946F936E7F73
:1044B0006E5F7F4F8F4F9F4FAF4FB1E03ED0B4E064
:1044C0003CD0670F781F891F9A1FA11D680F791FA5
:1044D0008A1F911DA11D6A0F711D811D911DA11DB6
:1044E00020D009F468943F912AE0269F11243019C6
:1044F000305D3193DEF6CF010895462F4770405D61
:104500004193B3E00FD0C9F7F6CF462F4F70405D0F
:104510004A3318F0495D31FD4052419302D0A9F76A
:10452000EACFB4E0A6959795879577956795BA9564
:10453000C9F700976105710508959B01AC010A2E2A
:1045400006945795479537952795BA95C9F7620F01
:10455000731F841F951FA01D0895FC01CA01DB0174
:1045600020FD08C023FD05C022FF02C0B383A28343
:10457000918380830895CF92DF92EF92FF92CF9341
:10458000DF9300D000D0CDB7DEB76B017C0183E0B4
:1045900044FD10C084E046FD0DC0D601F701AA0F0E
:1045A000BB1FEE1FFF1F1094D1F7CA0EDB1EEE1EBD
:1045B000FF1E81E0CC0CDD1CEE1CFF1C8150811124
:1045C000F9CFD701C601820F911DA11DB11DBC01FC
:1045D000CD010F900F900F900F90DF91CF91FF9032
:1045E000EF90DF90CF9008950F931F93CF93DF93B9
:1045F0008C01C8010E941D27EC0197FD08C00E9494
:104600000227892BB1F7B801CE010E945C27CE01A9
:10461000DF91CF911F910F9108959F92AF92BF921A
:10462000CF92DF92EF92FF920F931F93CF93DF937E
:10463000082F992EC62F5A01122F0E941D27FC0108
:104640009927EB3219F08D97C1F41068C150C11150
:104650000DC080E0DF91CF911F910F91FF90EF90FF
:10466000DF90CF90BF90AF909F900895802F992DAD
:104670000E941D27FC0197FDECCFD12FDD7F812FFC
:104680008073811131C0E03379F5EE24EA94EC0EA9
:10469000C13039F0802F992D0E941D27FC0197FF12
:1046A00015C0C12CD12C7601D7FF08C0F094E0943E
:1046B000D094C094C11CD11CE11CF11C2D2FB7015A
:1046C000A601C5010E94AD2281E0C4CF8F7D88354F
:1046D00029F5D264C250CC2321F3802F992D0E945A
:1046E0001D27FC0197FDDDCFC12CD12C760120EDDB
:1046F0002E0F2830D8F0D4FD09C02A30B8F0D6FFEC
:1047000005C02F7D8FEE820F863078F0602F792DD7
:10471000CF010E945C27D1FDC7CF9BCF16FF03C0FE
:10472000D260CE2DE1CFD261FCCF27504D2FC701F3
:10473000B6010E94BB226B017C01D260C150CC2328
:1047400009F4B2CF802F992D0E941D27FC0197FFFD
:10475000CECFE1CF6F927F928F929F92AF92BF9216
:10476000CF92DF92EF92FF920F931F93CF93DF933D
:10477000CDB7DEB7A0970FB6F894DEBF0FBECDBFA2
:104780006C01962E7A01CE0101965C0180E2F50162
:1047900011928A95E9F7F6018380890120E030E0E3
:1047A000B0E0712CA0E041E050E0F80183FC95916D
:1047B00083FE9191892F8F01911118C000E010E0C4
:1047C000C801A0960FB6F894DEBF0FBECDBFDF9133
:1047D000CF911F910F91FF90EF90DF90CF90BF90FE
:1047E000AF909F908F907F906F9008959E3539F491
:1047F0002115310539F5A1E02F5F3F4FD6CF6A2F44
:1048000070E062177307F4F49D3539F19D32D1F4ED
:104810007720F1F0E82FE695E695E695EA0DFB2D79
:10482000F11D682F67703A0102C0660C771C6A950B
:10483000E2F79081962990838B1769F08B1730F4FB
:104840008F5FE8CF7110E6CFB92FE4CF8150E2CF70
:1048500077247394D1CF712CCFCF772019F08E812C
:1048600080628E83AA2361F0F5019E012F5D3F4F88
:104870008081DF01319680958C93E217F307C1F7B1
:1048800088248394C6010E941D2797FD16C0E82F37
:10489000E695E695E695EA0DFB2DF11D208130E0C9
:1048A000AC014770552702C0359527954A95E2F728
:1048B00020FD06C0B6010E945C27882059F07ECFFB
:1048C000E114F10419F0F70181937F019A94812C8E
:1048D0009110D8CFE114F10409F472CFF7011082DE
:1048E0006FCF6F927F928F929F92AF92BF92CF9233
:1048F000DF92EF92FF920F931F93CF93DF9300D03D
:1049000000D000D0CDB7DEB75C016D837E83742EFE
:10491000652EDC0117961C921E921697C12CD501AC
:104920001396FC90ED81FE81F3FC8591F3FE81915D
:10493000182FFE83ED838823F9F090E00E94022770
:10494000892B21F0C5010E94F422E9CF153251F4E0
:10495000ED81FE81F3FC1591F3FE1191FE83ED8351
:10496000153269F4C5010E941D2797FDA4C01817D0
:10497000B1F2B5010E945C278C2D90E0A0C000E050
:104980001A3249F4ED81FE81F3FC1591F3FE119189
:10499000FE83ED8301E0D12C20ED210F2A3060F160
:1049A00001FF42C0DD2041F3183609F440C01C3637
:1049B00009F449C0112301F3612F70E08EE891E002
:1049C0000E940B27892BC1F2E12CF12C00FD06C0BF
:1049D000E72DF62DE190F1907E2E6F2E1E3609F018
:1049E0003CC0D50116964D915C9160E070E0202F9F
:1049F000C7010E94AD2293CF02608D2D90E0A0E010
:104A0000B0E089839A83AB83BC8340E2BC01CD01D3
:104A10000E94BB22D62EED81FE81F3FC1591F3FEA0
:104A20001191FE83ED83B8CFDD24DA94BDCFED8103
:104A3000FE81F3FC1591F3FE1191FE83ED83183690
:104A400009F0B8CF08600460ED81FE81F3FC159198
:104A5000F3FE1191FE83ED83ADCF1336B1F401FD6A
:104A600002C0DD24D394C5010E941D2797FD23C0F9
:104A7000E114F10419F0F70181937F01DA94D11068
:104A8000F2CF00FD4CCFC3944ACF1B3569F52D8181
:104A90003E81A7016D2DC5010E94AA238D839E83AF
:104AA000ED81FE81EF2B69F7D50113968C91807310
:104AB000882309F461CF8FEF9FEFC1105DCF0F9076
:104AC0000F900F900F900F900F90DF91CF911F914B
:104AD0000F91FF90EF90DF90CF90BF90AF909F909D
:104AE0008F907F906F900895C5010E94F42297FDEA
:104AF000E2CF1F3691F130F4143641F0193639F017
:104B0000006405C01337A1F01537D1F70062202FDC
:104B1000A7016D2DC5010E940D238823C4CFE11488
:104B2000F10419F0F70181927F01DA94DD2071F030
:104B3000C5010E941D274C0197FD08C00E94022755
:104B4000892B69F3B501C4010E945C27E114F104CB
:104B500009F497CFF701108294CF0061D8CF0F935B
:104B60001F93CF93DF93869F8001879F100D969FA1
:104B7000100D1124C8010E94CB25EC01009729F0EB
:104B8000A80160E070E00E941627CE01DF91CF916E
:104B90001F910F9108950F931F93CF93DF939C0163
:104BA000029710F422E030E0E0915D0DF0915E0D8F
:104BB00080E090E0A0E0B0E0309791F4009709F435
:104BC00045C0821B930B84309105B8F58A819B8187
:104BD0006115710569F1FB0193838283FE0111C0A8
:104BE000408151810281138142175307F0F042172F
:104BF000530799F4109761F012960C93129713963D
:104C00001C933296CF01DF91CF911F910F910895A0
:104C100000935D0D10935E0DF4CF009719F04817C7
:104C2000590718F4CA01BD01EF01DF01F801C4CF33
:104C300090935E0D80935D0DD1CFFE01E80FF91FBB
:104C400021933193029799838883DCCF80915F0D04
:104C50009091600D892B41F480910601909107019C
:104C60009093600D80935F0D8091040190910501F8
:104C7000009741F48DB79EB740910801509109010A
:104C8000841B950B40915F0D5091600D481759079B
:104C900008F0B8CF841B950B8217930708F4B2CFA6
:104CA000B9016E5F7F4F8617970708F4ABCF640F8B
:104CB000751F7093600D60935F0DFA01219331931E
:104CC000A1CFCF93DF939C010097D9F0FC013297DD
:104CD00013821282A0915D0DB0915E0D109709F0C4
:104CE00086C080819181280F391F80915F0D90913E
:104CF000600D8217930709F05FC0F093600DE09399
:104D00005F0DDF91CF910895CE17DF0708F059C0EE
:104D1000AE010A80DB81C02D2097B1F7EA01FB8349
:104D2000EA8329913991CE01820F931FE817F90781
:104D300061F4808191810296820F931FEA01998329
:104D40008883828193819B838A83E0E0F0E01296DE
:104D50008D919C911397009709F04EC0ED018991B8
:104D600099918C0F9D1F20915F0D3091600D281738
:104D7000390739F6309709F042C010925E0D109253
:104D80005D0DB093600DA0935F0DBBCFB383A28385
:104D900080819181280F391FA217B30769F4029609
:104DA0002D913C911197820F931F918380831296CE
:104DB0008D919C9193838283F0935E0DE0935D0DC2
:104DC000A0CFD383C28380819181280F391FC2175E
:104DD000D30709F0A3CF029628813981820F931F50
:104DE000918380838A819B819383828397CFAE173F
:104DF000BF0760F6ED018CCFFD01DC01A8CF138267
:104E00001282BFCF91110C947427803219F089500F
:104E10008550C8F70895FC010590061621F0002082
:104E2000D9F7C00108953197CF010895DC0101C081
:104E30006D9341505040E0F70895CF93DF93EC011C
:104E40008B8180FF1BC086FF0CC08F7B8B838E8184
:104E50009F8101969F838E838A8190E0DF91CF911D
:104E6000089582FF19C0E881F9819081292F092EC8
:104E7000000C330B911105C080628B838FEF9FEF85
:104E8000EDCF3196F983E8838E819F8101969F83D0
:104E90008E83C9019927E2CFEA85FB85CE0109956A
:104EA0009C0197FFF1CF8B812F3F3F4F19F490E189
:104EB000892BE3CF90E2FCCFFB01238120FF11C0BF
:104EC00026FD0FC08F3F980771F082832F7D2064ED
:104ED00023832681378121503109378326839927FF
:104EE00008958FEF9FEF0895992788270895E199F6
:104EF000FECF9FBB8EBBE09A99278DB30895262FD6
:104F0000E199FECF9FBB8EBB2DBB0FB6F894E29A02
:104F1000E19A0FBE01960895F894FFCF72017601D1
:104F20007B01800187018C015C016B01490931091A
:104F300019090109E908C508AF082108DF091A1D88
:104F40004F1D541D5B1D621D671D6C1D6F1D761D61
:104F50007D1D0A1D0A1D0A1D0A1D0A1D0A1D0A1DA6
:104F60000A1D0A1D0A1D0A1D0A1D0A1D0A1D0A1D09
:104F70000A1D0A1D0A1D0A1D0A1D0A1D0A1D0A1DF9
:104F80000A1D0A1DE01C0A1D0A1D0A1D0A1D0A1D14
:104F90000A1D0A1D0A1D0A1D0A1D0A1D0A1D0A1DD9
:0A4FA000D61DDB1DE01DE31D131DEF
:104FAA00010001000000610D2000FFFFFFFFFFFF6D
:104FBA00FFFFFFFF25630A0D0072656164414443E8
:104FCA003A206368616E6E656C20617267756D6503
:104FDA006E74206F7574206F662072616E67652E1D
:104FEA000A0D0043686F6F7365206120666163650F
:104FFA00205B312C322C335D3A0A0D00456E746504
:10500A00722074776F2064696769747320666F729F
:10501A00207370696E20737065656420286F722032
:10502A007820746F2065786974293A200A0D004542
:10503A006E746572205320666F72207370696E20D9
:10504A00746573742C204E20666F722073686F72B9
:10505A00742D70756C736520746573743A200A0D2B
:10506A00004144433D256409646567726565733D83
:10507A0025660A0D004144433D25640A0D00455248
:10508A00524F523A20796F7520686176656E27749F
:10509A00207265636F726465642064656772656512
:1050AA0020706F736974696F6E732070726F7065A8
:1050BA00726C79207965740A0D00454550524F4D3E
:1050CA00206D6F746F722063616C696272617469BA
:1050DA006F6E20646174612028616E676C652C2094
:1050EA0076616C7565293A200A0D0050726F636506
:1050FA00737349442028303D736C6176652C2031E6
:10510A003D6D6173746572293A202564200A0D0089
:10511A000928302C2025642920200A0D000928346A
:10512A00352C20256429200A0D00092839302C2025
:10513A00256429200A0D0009283133352C202564DD
:10514A00290A0D0009283138302C202564290A0D36
:10515A00000A0D43686F6F73652066726F6D207465
:10516A00686520666F6C6C6F77696E67206F707404
:10517A00696F6E733A0A0D00312E207072696E746F
:10518A00204144432076616C75657320616E64200A
:10519A006465677265657320636F6E74696E756F97
:1051AA0075736C7920666F722033207365636F6E36
:1051BA0064730A0D00322E207265636F7264207068
:1051CA006F736520636F72726573706F6E64696E58
:1051DA006720746F20302064656772656520706F80
:1051EA00736974696F6E0A0D00332E207265636FDE
:1051FA00726420706F736520636F72726573706F6B
:10520A006E64696E6720746F203435206465677236
:10521A00656520706F736974696F6E0A0D00342EAC
:10522A00207265636F726420706F736520636F729A
:10523A00726573706F6E64696E6720746F2039309F
:10524A002064656772656520706F736974696F6E33
:10525A000A0D00352E207265636F726420706F73B9
:10526A006520636F72726573706F6E64696E672012
:10527A00746F203133352064656772656520706FFD
:10528A00736974696F6E0A0D00362E207265636F3A
:10529A00726420706F736520636F72726573706FCA
:1052AA006E64696E6720746F2031383020646567D8
:1052BA0072656520706F736974696F6E0A0D0037C5
:1052CA002E2077726974652063616C6962726174F9
:1052DA00696F6E206461746120746F204545505275
:1052EA004F4D20616E642072657475726E20746F02
:1052FA00206D61696E206D656E750A0D00382E206D
:10530A007072696E742063616C6962726174696F2C
:10531A006E20646174612063757272656E746C7953
:10532A0020696E20454550524F4D0A0D00392E20F6
:10533A0072657475726E20746F206D61696E206D6E
:10534A00656E750A0D005374617274696E67204147
:10535A006363656C65726F6D6574657220546573FD
:10536A00740A0D00416363656C2076616C75653A59
:10537A002025752025752025750A0D00312E2070EF
:10538A0072696E7420616363656C65726F6D6574B2
:10539A0065722076616C75657320636F6E74696ED1
:1053AA00756F75736C7920666F722033207365632D
:1053BA006F6E64730A0D00322E207265636F726419
:1053CA0020706F7365207769746820782D61786919
:1053DA007320706F696E74696E6720757020287209
:1053EA006967687420646F636B20666163696E67BE
:1053FA00207570290A0D00332E207265636F72645E
:10540A0020706F7365207769746820782D617869D8
:10541A007320706F696E74696E6720646F776E208F
:10542A00286C65667420646F636B20666163696EBD
:10543A0067207570290A0D00342E207265636F7219
:10544A006420706F7365207769746820792D61789C
:10545A00697320706F696E74696E67207570202891
:10546A0066726F6E7420646F636B20666163696E27
:10547A0067207570290A0D00352E207265636F72D8
:10548A006420706F7365207769746820792D61785C
:10549A00697320706F696E74696E6720646F776EC6
:1054AA00202866726F6E7420646F636B2066616376
:1054BA00696E6720646F776E290A0D00362E207296
:1054CA0065636F726420706F7365207769746820F2
:1054DA007A2D6178697320706F696E74696E6720BE
:1054EA00757020286D617374657220626F617264D1
:1054FA0020666163696E67207570290A0D00372E70
:10550A00207265636F726420706F736520776974A7
:10551A0068207A2D6178697320706F696E74696E7C
:10552A006720646F776E20286D61737465722062DC
:10553A006F61726420666163696E6720646F776E5B
:10554A00290A0D00382E2077726974652063616C10
:10555A006962726174696F6E206461746120746F2C
:10556A0020454550524F4D20616E64207265747516
:10557A00726E20746F206D61696E206D656E750A9A
:10558A000D00392E207072696E742063616C696235
:10559A00726174696F6E20646174612063757272DE
:1055AA00656E746C7920696E20454550524F4D0ADC
:1055BA000D00302E2072657475726E20746F206D26
:1055CA0061696E206D656E750A0D00726177203D06
:1055DA00202825752C25752C2575292C2063616CAE
:1055EA0069627261746564203D202825662C2566EF
:1055FA002C2566290A0D004552524F523A20796FDE
:10560A007520686176656E27742063616C696272C1
:10561A0061746564207468652025632D61786973F7
:10562A00207965740A0D004E65772063616C6962A2
:10563A00726174696F6E2076616C7565733A0A0DD2
:10564A00006F6666736574203D202825752C2575C4
:10565A002C2575292C20636F6E76203D202825671E
:10566A002C25672C2567290A0D00566F6C74616713
:10567A00652072656164696E673D202025640A0DA4
:10568A000043757272656E742072656164696E6733
:10569A00203D202025640A0D005374617274206332
:1056AA006F6E646974696F6E0A0D0073656E6420AB
:1056BA00627974650A0D0073746F700A0D002558BB
:1056CA00203C2D2D2D2D2D205269676874204661AE
:1056DA0063652E200A0D002558203C2D2D2D2D2DD9
:1056EA00204D6964646C6520466163652E200A0D4D
:1056FA00002558203C2D2D2D2D2D204C656674201B
:10570A00466163652E200A0D00506C656173652041
:10571A0073706563696679206120666163653A2002
:10572A004C4546545F464143452C2052494748540C
:10573A005F464143452C204D4944444C455F464110
:10574A00434500526967687420495220626F61724A
:10575A0064200046726F6E7420495220626F617233
:10576A006420004C65667420495220626F6172643D
:10577A002000506C65617365207370656369667992
:10578A002074686520666163652021212121200A31
:10579A000D00496E697469616C697A6174696F6E2A
:1057AA002072657475726E203D20202558200A0DDE
:1057BA0000537461727420495220436F6D6D2054F6
:1057CA006573740A0D0069203D202564200A0D00C6
:1057DA0052656365697665722076616C75657320BA
:1057EA0025642C2025642C2025642C2025640A0D90
:1057FA0000282564202564292041444330203D2087
:10580A0025640A0D0057616974696E6720746F20F8
:10581A00626520696E7465727275707465640A0DCA
:10582A00007269676874206D6964646C6520206C15
:10583A006566740A0D003132333435202031323333
:10584A003435202031323334350A0D002D2D2D2DDB
:10585A002D2D2D2D2D2D2D2D2D2D2D2D2D2D2D0A91
:10586A000D002020005320696E743120696E743255
:10587A000A0D00312E204C454420746573740A0DBC
:10588A0000322E206D6F746F72203020746573742D
:10589A000A0D00332E206D6F746F722031207465EB
:1058AA0073742028736C617665206F6E6C79290A8F
:1058BA000D00342E20616363656C65726F6D6574CB
:1058CA006572207465737420286D61737465722023
:1058DA006F6E6C79290A0D00352E20766F6C746113
:1058EA0067652F63757272656E742073656E736F68
:1058FA0072207465737420286D6173746572206FE9
:10590A006E6C79290A0D00362E20726164696F2047
:10591A00746573740A0D00372E204932432072656C
:10592A00636569766520746573740A0D00382E20E4
:10593A004932432073656E6420746573740A0D00DE
:10594A00392E2049522074657374206D656E750A6C
:10595A000D00302E2043616C6962726174696F6E4A
:10596A00206D656E750A0D00612E20436F6D626FA2
:10597A002074657374206F66204C45442C20495668
:10598A002073656E736F72732C20616E642061637D
:10599A0063656C65726F6D657465720A0D00622EBF
:1059AA0020436F6D626F2049522073656C662D6CBF
:1059BA006F6F7020746573740A0D00632E2054652E
:1059CA007374204C454473206F6E206120646F63AA
:1059DA006B20666163652028666F72207665727334
:1059EA00696F6E35206861726477617265290A0D84
:1059FA0000642E206D6F746F7220302050574D2036
:105A0A00746573740A0D00652E206D6F746F7220B1
:105A1A00312050574D20746573740A0D000A0D43E6
:105A2A00686F6F7365206120746573743A0A0D009C
:105A3A002564202564007265636569766520696E50
:105A4A007465676572733A2025642C2025640A0DF3
:105A5A000A0D000A0D43686F6F7365206120636F3A
:105A6A006D6D2E20626F6172640A0D002830206607
:105A7A006F722072696768742C203120666F7220F9
:105A8A006D6964646C652C203220666F72206C65C7
:105A9A006674293A0A0D00312E2053656E6420740B
:105AAA006573740A0D00322E2053656C662D6C6F77
:105ABA006F7020746573740A0D00332E2050726F54
:105ACA0078696D6974792072656164696E6720749A
