:2000000093C000C2A1C0A0C09FC09EC09DC09CC09BC09BC099C098C097C096C095C094C0D7
:2000200093C00FC291C06E616E00696E660000407A10F35A00A0724E18090010A5D4E800C8
:2000400000E87648170000E40B54020000CA9A3B000000E1F50500008096980000004042F4
:200060000F000000A08601000000102700000000E803000000006400000000000A000000BA
:2000800000000100000000002C76D888DC674F0823DFC1DFAE59E1B1B796E5E3E453C63A3C
:2000A000E651997696E8E6C28426EB898C9B62ED407C6FFCEFBC9C9F40F2BAA56FA5F4900A
:2000C000055A2AF75C936B6CF9676DC11BFCE0E40D47FEF520E6B500D0ED902E0300943528
:2000E00077050080841E080000204E0A000000C80C333333330F986E12831141EF8D211495
:20010000893BE65516CFFEE6DB18D1844B381BF77C1D901DA4BBE424203284725E22810044
:20012000C9F124ECA1E53D2711241FBECFE5D4E0DEBFCDBF20E0A0E6B0E001C01D92AD37FE
:20014000B207E1F7D6D19CC95BCF8F938FB78F9380917C00882309F48EC08091790082BF00
:200160008091770082BB82BB8091770082BB82BB8091770082BB82BB8091770082BB82BB77
:200180008091770082BB82BB8091770082BB82BB8091770082BB82BB8091770082BB82BB57
:2001A0008091770082BB82BB8091770082BB82BB8091770082BB82BB8091770082BB82BB37
:2001C0008091770082BB82BB8091770082BB82BB8091770082BB82BB8091770082BB82BB17
:2001E0008091770082BB82BB8091770082BB82BB8091770082BB82BB8091770082BB82BBF7
:200200008091770082BB82BB8091770082BB82BB8091770082BB82BB8091770082BB82BBD6
:200220008091770082BB82BB8091770082BB82BB8091770082BB82BB8091770082BB82BBB6
:200240008091770082BB82BB8091770082BB82BB8091770082BB82BB8091770082BB82BB96
:200260008091780082BB80E080937C00A8958F918FBF8F91189580917B0082BF80917700FC
:2002800082BB82BB8091770082BB82BB8091770082BB82BB8091770082BB82BB8091770056
:2002A00082BB82BB8091770082BB82BB8091770082BB82BB8091770082BB82BB8091770036
:2002C00082BB82BB8091770082BB82BB8091770082BB82BB8091770082BB82BB8091770016
:2002E00082BB82BB8091770082BB82BB8091770082BB82BB8091770082BB82BB80917700F6
:2003000082BB82BB8091770082BB82BB8091770082BB82BB8091770082BB82BB80917700D5
:2003200082BB82BB8091770082BB82BB8091770082BB82BB8091770082BB82BB80917700B5
:2003400082BB82BB8091770082BB82BB8091770082BB82BB8091770082BB82BB8091770095
:2003600082BB82BB8091770082BB82BB8091770082BB82BB8091770082BB82BB80917A0072
:2003800082BB81E071CF9C0197FD1DC0F8948F3F910509F064F5582F509541E091E150934D
:2003A0007B00809379004093770090937A0083E080937800283F3105E4F090937800909332
:2003C000770078940895319521953109F894822F2F3F310509F02CF4582F509542E09AE045
:2003E000DECF8FEF582F509542E09AE0D8CF8FEFD2CF283031052CF780937A00809377003C
:20040000789408951F921FB61F9211248F939F93829B08C01DBC1CBC9F918F911F901FBE01
:200420001F9018958CB59DB5909376008093750084E6809374009F918F911F901FBE1F9030
:2004400018951F921FB61F9211248F939F93EF93FF9381B1982F987F903AB1F018F59036CD
:2004600041F1903811F5809162008823B9F1E0917300E031D0F581E08E0FF0E080937300A6
:2004800083B1ED59FF4F808386B7806886BF84E680936100FF91EF919F918F911F901FBE5D
:2004A0001F901895887E883A39F086B7806186BFEBCF10926200E8CFE0917300E03150F4DE
:2004C00081E08E0FF0E080937300ED59FF4F808183B9DACFE0E0F0E081E0F5CF83B1809352
:2004E000730081E080936200CFCFE0E0F0E081E0C5CF00D000D000D0CDB7DEB788E198E026
:200500000FB6F894A89581BD0FBE91BD17BA20E428BB12BA8BEB81BB32E033BF89B7816099
:2005200089BF80E090E02FDF42E04EBD81E085BF50E45BBF87EC87B987EE86B9B69BF4C009
:2005400084E882B985E486BF78948FE79AE126E0815090402040E1F700C000001E821D826B
:200560004CE2842E99249394A12CB12C24B135B1A8EEB3E0A4D569837A838B839C8394D432
:200580002DEE36E648E85DE369837A838B839C8369817A818B819C81EBD426EA3CEB45E86D
:2005A0005FE369837A838B839C8369817A818B819C81DED469837A838B839C8369817A8128
:2005C0008B819C813ED48B0180916000003C4BE214070CF08FC081608D7F909161009923E9
:2005E00009F486C09150909361008F7D90917400992309F47BC09150909374008F7E809326
:200600006000F894E0907500F09076007894D0906000D5FE5DC0D4FC50C0C7018F5E9240F0
:200620008B3D954008F049C0C70188519640092E000CAA0BBB0B2227382F492F5A2F29838A
:200640003A834B835C83CA01B901A50194011BD58D2D8F70811131C021304FEF34070CF07E
:200660005BC021E03FEF8D819E8101972817390764F18D819E8101969E838D832817390723
:2006800014F43E832D83D09265008D819E8195958795809366001093680000936700F092A7
:2006A0006A00E09269008D819E816DDE8FEC97E00197F1F700C0000059CF20E030E08D8105
:2006C0009E81019728173907A4F69E838D83DBCF20916300220F330BD4FCBACFC7018F5EDE
:2006E00092408B3D954008F0B3CF9ECF806187CF80627CCF013250E315070CF46DCF8E7F75
:20070000013C94E4190734F4003E4DE314070CF064CF62CF826061CF2F3F310509F00CF444
:20072000A2CF2FEF30E09FCF86E882B90BCFA1E1B0E0ECE9F3E0CFC47C013B015A01DC01EB
:2007400017961C921E92169713968C9181FF76C3F7019381F30193FD859193FF81913F01D8
:20076000882309F467C0853239F493FD859193FF81913F01853231F4B70190E0F3D565010A
:200780005601E6CF812C512C00E00032D0F58B3289F158F4803279F1833289F19BE9980F53
:2007A000933008F014C20F7E59C08D3231F1803349F020ED280F2A3090F18E3209F040C05D
:2007C000006401C00160F30193FD859193FF81913F018111DACF102F197F803709F4F4C299
:2007E00008F0EAC2883509F4F1C28F3619F528E030E0C6C202600460E6CF0860E4CF00617E
:20080000E2CF07FD24C020ED280F2A3078F406FF06C0FAE08F9E200D1124822ED4CF3AE094
:20082000539E200D1124522E0062CDCF8E3241F406FFC6CFF701868197816196E2E167C45C
:200840008C3611F40068BFCF883609F4BCCF9BEB980F933008F0A2CF0061805E402F4074DA
:20086000442E0F73902E4111A4C0853609F0ABC0689496F866E0862E16E0F501819191914D
:20088000A191B1916F018C879D87AE87BF87042D282DAE014F5F5F4FBC01CD0175D45C0100
:2008A0003980832D8C7030FE02C033FECDC0082F91FCC6C092FEA7C08111DCC000E297FE3F
:2008C000F2C04A0C34FE04C08A81813309F44A9414140CF015C1F8E0F41510F498E0492EB2
:2008E000C501B7FE02C080E090E0019601110196112331F0212F30E02F5F3F4F820F931F97
:20090000252D30E0581A821793070CF0512C892D8970811102C05110F6C0002321F0B70151
:20092000802F90E01FD593FC02C05110F2C097FE06C14501B7FE02C0812C912CC501881956
:20094000990961E070E06C0F7D1F680F791F7D876C87C50184199109998B888B012F10E0F3
:20096000119501951109A814B9040CF4D8C0A889B989A815B9050CF0D2C0EC85FD8581819F
:20098000F1E08F1A91082C853D852F5F3F4F3D872C87801691060CF4C4C0B70190E0E2D4AF
:2009A0003FEF83169306F9F6B7018EE290E0DAD4DACF853679F4689496F867E06815F8F09B
:2009C000182D412C5ACF35E0832E8636C9F756E0852E02C0863671F4689497F8882D5BE3B0
:2009E000581508F48BE344244394480E182D47E0842E43CF10E0882021F38A94DECF27E0DD
:200A0000822E17E0DECF882309F459CFF3E0F51508F1512C0AE210E033FE02C006E210E0B8
:200A2000592D5071952EF8018491811134C0552009F4A6CEB70180E290E094D45A94F7CF8C
:200A4000811125C00BE23BCF0DE2882309F437CF1DE211C02DEF520E192D18701111DACFA6
:200A6000B70180E290E07ED45A945110F9CF112381F208C010E234E0351558F44CEF540EDB
:200A800093FEEECFB701812F90E06CD4C3CF1BE2F2CF512CF7CF91108052B70190E062D48C
:200AA0000F5F1F4FC0CF96FE03C085E090E01ECFE12FF0E0EA15FB053CF02CEFA2162FEFB6
:200AC000B20614F0689497F8329641E050E04C0F5D1FE40FF51F01C01150112319F0829166
:200AE0008033D1F397FEE1CF44244394410E812F90E01A19A816B9060CF4F2CE10E0F0CE6E
:200B000044244394EDCEB70180E290E02BD45A9402CFB70180E390E025D45A9406CF80E3E9
:200B20002FCFA814B90439F49A81963318F4953311F434FE81E3B70190E014D478CF8A815C
:200B4000813311F0E89434F8B70190E00BD4111122C085E490E094FC02C085E690E0B7016F
:200B600001D4B7FC05C0A114B10451F534FE28C0B194A194B1088DE2B70190E0F3D380E36B
:200B80005AE0A516B104F4F4B70190E0EBD3B701C501C096D2CFB7018EE290E0E3D31E5F9D
:200BA00002E0802F0F5FE1E0F0E0EC0FFD1FE80FF11D8081B70190E0D5D30113F2CFC9CF4B
:200BC0008BE2DACF8F5F4AE0A41AB108D9CF8336A9F0833709F43AC0833509F04BC0F50113
:200BE000219031906F01682D70E006FD02C06FEF7FEFC101A1D35C0100680EC0650162E02C
:200C0000C60ED11CD5018C918983AA24A394B12CFE0131961F010F7703FD05C0852D90E0DF
:200C2000A816B90608F1A114B10409F400CFF10107FD859107FF81911F01B70190E092D337
:200C400051105A94F1E0AF1AB108EDCFD5012D903D906D01682D70E006FD02C06FEF7FEFF2
:200C6000C10175D35C01D7CFB70180E290E07AD35A94D4CF843619F0893609F07AC007FF44
:200C80006FC0D5016D917D918D919D916D010F76402E97FF09C090958095709561957F4F34
:200CA0008F4F9F4F689447F82AE030E08E010F5F1F4FA80187D3B82EB01A1B2D042D46FE38
:200CC0000AC00E7FB81438F444FE04C042FC02C0042D0E7E182D04FF8CC0FE01EB0DF11D69
:200CE0008081803309F07FC0097E03FD0EC000FF8EC08B2C151518F4850C811A152D852D59
:200D0000811B511608F480E0180F151508F081C0511A04FF80C0B70180E390E023D302FFBA
:200D200008C088E590E001FD02C088E790E0B70119D3B81408F47CC0BA940B2D10E00F5FE3
:200D40001F4FCE0101965C01080F191FD8018E918D01B70190E006D3A016B106B9F767CE3A
:200D6000F501619171916F01072E000C880B990B8ECF102F1F7E2AE030E0853709F02BCDA1
:200D800017FF29C0D5014D915D916D917D916D014C875D876E877F87BE016F5F7F4F5B01CF
:200DA000AB016C857D858E859F850CD3B82EBA18412EE89447F881CF883709F03BCD14FD7B
:200DC000146020E130E0DCCF1061F9CF04FD166020E132E0D5CFF501819191916F01AC0135
:200DE00060E070E0D5CF02FD02C01F5F7ECF1E5F7CCF802F8678882309F477CFF6CFB70153
:200E000080E290E0AFD2A394A514C8F378CFA12EFBCF512C7ECF802F8678882309F489CF7D
:200E20008BE201FF80E207FD8DE2B70190E080CFB70180E390E096D28A947BCF8FEF9FEF92
:200E4000FCCC04D06894B1118DC0089570D088F09F5790F0B92F9927B751A0F0D1F0660FAA
:200E6000771F881F991F1AF0BA95C9F712C0B13081F077D0B1E0089574C0672F782F8827AB
:200E8000B85F39F0B93FCCF3869577956795B395D9F73EF490958095709561957F4F8F4F0D
:200EA0009F4F0895E89409C097FB3EF490958095709561957F4F8F4F9F4F9923A9F0F92F52
:200EC00096E9BB279395F695879577956795B795F111F8CFFAF4BB0F11F460FF1BC06F5F00
:200EE0007F4F8F4F9F4F16C0882311F096E911C0772321F09EE8872F762F05C0662371F04B
:200F000096E8862F70E060E02AF09A95660F771F881FDAF7880F9695879597F9089557FDE3
:200F20009058440F551F59F05F3F71F04795880F97FB991F61F09F3F79F087950895121684
:200F400013061406551FF2CF4695F1DF08C0161617061806991FF1CF869571056105089444
:200F60000895E894BB2766277727CB0197F908950BD078C069D028F06ED018F0952309F0F7
:200F80005AC05FC01124EECFCADFA0F3959FD1F3950F50E0551F629FF001729FBB27F00DC8
:200FA000B11D639FAA27F00DB11DAA1F649F6627B00DA11D661F829F2227B00DA11D621F06
:200FC000739FB00DA11D621F839FA00D611D221F749F3327A00D611D231F849F600D211DCD
:200FE000822F762F6A2F11249F5750408AF0E1F088234AF0EE0FFF1FBB1F661F771F881F60
:2010000091505040A9F79E3F510570F014C0AACF5F3FECF3983EDCF3869577956795B7954E
:20102000F795E7959F5FC1F7FE2B880F911D9695879597F9089597F99F6780E870E060E082
:2010400008959FEF80EC089500240A941616170618060906089500240A941216130614066A
:2010600005060895092E0394000C11F4882352F0BB0F40F4BF2B11F460FF04C06F5F7F4F50
:201080008F4F9F4F0895052E97FB16F400940FD057FD05D057D007FC02D046F408C0509599
:2010A0004095309521953F4F4F4F5F4F089590958095709561957F4F8F4F9F4F0895A29FBC
:2010C000B001B39FC001A39F01D0B29F700D811D1124911D08952F923F924F925F926F92E8
:2010E0007F928F929F92AF92BF92CF92DF92EF92FF920F931F93CF93DF93CDB7DEB7CA1BF1
:20110000DB0B0FB6F894DEBF0FBECDBF09942A88398848885F846E847D848C849B84AA848F
:20112000B984C884DF80EE80FD800C811B81AA81B981CE0FD11D0FB6F894DEBF0FBECDBF3C
:20114000ED010895A1E21A2EAA1BBB1BFD010DC0AA1FBB1FEE1FFF1FA217B307E407F507AB
:2011600020F0A21BB30BE40BF50B661F771F881F991F1A9469F760957095809590959B019D
:20118000AC01BD01CF010895283008F027E03327DA01990F311D87FD91600096610571050E
:2011A00039F432602E5F3D9330E32A95E1F708959F3F30F080387105610509F03C5F3C5F0B
:2011C0003D93913008F08068911DDF93CF931F930F93FF92EF92192F987F9695E92F9695E9
:2011E0009695E90FFF27E857FF4F99273327EE24FF24A701E70105900894079428F4360F0D
:20120000E71EF81E491F511D660F771F881F991F0694A1F70590079428F4E70EF81E491F82
:20122000561FC11D770F881F991F661F0694A1F70590079428F4F80E491F561FC71FD11DBC
:20124000880F991F661F771F0694A1F70590079420F4490F561FC71FD81F990F661F771F41
:20126000881F0694A9F784911095177041F0D695C79557954795F794E7941A95C1F7EEE24F
:20128000F0E068941590159135916591959105907FE27395E118F10A430B560BC90BD00907
:2012A000C0F7E10CF11E431F561FC91FD01D7EF4703311F48A95E6CFE894015030F0080FDD
:2012C0000AF40027021708F4202F2395022F7A3328F079E37D932A95E9F710C07D932A952D
:2012E00089F6069497956795379517951794E118F10A430B560BC90BD00998F023957E91EB
:2013000073957A3308F070E37C932013B8F77E9170617D9330F0839571E37D9370E32A953E
:20132000E1F71124EF90FF900F911F91CF91DF91992787FD90950895FC0105906150704079
:201340000110D8F7809590958E0F9F1F0895FC016150704001900110D8F7809590958E0FD5
:201360009F1F08950F931F93CF93DF93182F092FEB018B8181FD09C01FEF0FEF812F902FB1
:20138000DF91CF911F910F91089582FF14C02E813F818C819D81281739073CF4E881F9810F
:2013A000CF0101969983888310838E819F8101969F838E83E3CFE885F985812F0995892B74
:2013C000A1F3DACFFA01AA27283051F1203181F1E8946F936E7F6E5F7F4F8F4F9F4FAF4FD7
:2013E000B1E03ED0B4E03CD0670F781F891F9A1FA11D680F791F8A1F911DA11D6A0F711D57
:20140000811D911DA11D20D009F468943F912AE0269F11243019305D3193DEF6CF0108952A
:20142000462F4770405D4193B3E00FD0C9F7F6CF462F4F70405D4A3318F0495D31FD40525C
:20144000419302D0A9F7EACFB4E0A6959795879577956795BA95C9F700976105710508954F
:201460009B01AC010A2E06945795479537952795BA95C9F7620F731F841F951FA01D08953E
:04148000F894FFCF0E
:00000001FF
